:020000040800F2
:1000000000500020A91C0008311C0008331C000807
:10001000351C0008371C0008391C000800000000CF
:100020000000000000000000000000003B1C000871
:100030003D1C0008000000003F1C0008411C000897
:10004000F11C0008F11C0008F11C0008F11C00085C
:10005000F11C0008F11C0008F11C0008F11C00084C
:10006000F11C0008F11C0008F11C0008451C0008E8
:10007000F11C0008F11C0008F11C0008F11C00082C
:10008000F11C0008F11C0008511C0008F11C0008BC
:10009000F11C0008F11C0008F11C0008F11C00080C
:1000A000F11C0008F11C0008F11C0008F11C0008FC
:1000B000F11C0008F11C0008F11C0008F11C0008EC
:1000C000F11C0008F11C0008F11C0008F11C0008DC
:1000D000F11C0008F11C0008F11C0008F11C0008CC
:1000E000F11C0008F11C0008F11C000800000000D1
:1000F0000000000000000000000000000000000000
:0C01000000000000000000005FF808F1A3
:10010C0010B5054C237833B9044B13B10448AFF345
:10011C0000800123237010BD0C00002000000000A3
:10012C004C1D000808B5034B1BB103490348AFF342
:10013C00008008BD00000000100000204C1D0008CD
:10014C0080F0004002E000BF81F0004142001FBF80
:10015C005FEA410392EA030F7FEA226C7FEA236C89
:10016C006AD04FEA1262D2EB1363C1BFD21841407E
:10017C0048404140B8BF5B42192B88BF704710F014
:10018C00004F40F4000020F07F4018BF404211F0B7
:10019C00004F41F4000121F07F4118BF494292EA1F
:1001AC00030F3FD0A2F1010241FA03FC10EB0C004B
:1001BC00C3F1200301FA03F100F0004302D54942D8
:1001CC0060EB4000B0F5000F13D3B0F1807F06D385
:1001DC0040084FEA310102F10102FE2A51D2B1F17D
:1001EC00004F40EBC25008BF20F0010040EA030072
:1001FC007047490040EB000010F4000FA2F101021F
:10020C00EDD1B0FA80FCACF1080CB2EB0C0200FAA8
:10021C000CF0AABF00EBC25052421843BCBFD040F6
:10022C001843704792F0000F81F4000106BF80F470
:10023C0000000132013BB5E74FEA41037FEA226C33
:10024C0018BF7FEA236C21D092EA030F04D092F0FE
:10025C00000F08BF0846704790EA010F1CBF002032
:10026C00704712F07F4F04D1400028BF40F000408F
:10027C00704712F100723CBF00F50000704700F0AF
:10028C00004343F0FE4040F4000070477FEA2262D6
:10029C0016BF08467FEA23630146420206BF5FEAA7
:1002AC00412390EA010F40F4800070474FF00003A7
:1002BC0004E000BF10F0004348BF40425FEA000C6E
:1002CC0008BF704743F0964301464FF000001CE016
:1002DC0050EA010208BF70474FF000030AE000BF6C
:1002EC0050EA010208BF704711F0004302D54042AA
:1002FC0061EB41015FEA010C02BF8446014600201C
:10030C0043F0B64308BFA3F18053A3F50003BCFA36
:10031C008CF2083AA3EBC25310DB01FA02FC6344E3
:10032C0000FA02FCC2F12002BCF1004F20FA02F2EA
:10033C0043EB020008BF20F00100704702F12002DD
:10034C0001FA02FCC2F1200250EA4C0021FA02F23E
:10035C0043EB020008BF20EADC7070474FF0FF0C43
:10036C001CEAD0521EBF1CEAD15392EA0C0F93EA3E
:10037C000C0F6FD01A4480EA010C400218BF5FEAE0
:10038C0041211ED04FF0006343EA501043EA511153
:10039C00A0FB01310CF00040B1F5000F3EBF49004D
:1003AC0041EAD3715B0040EA010062F17F02FD2A51
:1003BC001DD8B3F1004F40EBC25008BF20F0010034
:1003CC00704790F0000F0CF0004C08BF49024CEA4B
:1003DC00502040EA51207F3AC2BFD2F1FF0340EADD
:1003EC00C250704740F400004FF00003013A5DDC4E
:1003FC0012F1190FDCBF00F000407047C2F100028F
:10040C00410021FA02F1C2F1200200FA02FC5FEA7B
:10041C00310040F1000053EA4C0308BF20EADC70C5
:10042C00704792F0000F00F0004C02BF400010F437
:10043C00000F013AF9D040EA0C0093F0000F01F0E4
:10044C00004C02BF490011F4000F013BF9D041EA06
:10045C000C018FE70CEAD15392EA0C0F18BF93EA08
:10046C000C0F0AD030F0004C18BF31F0004CD8D132
:10047C0080EA010000F00040704790F0000F17BFB9
:10048C0090F0004F084691F0000F91F0004F14D0FF
:10049C0092EA0C0F01D142020FD193EA0C0F03D157
:1004AC004B0218BF084608D180EA010000F000405A
:1004BC0040F0FE4040F40000704740F0FE4040F435
:1004CC00400070474FF0FF0C1CEAD0521EBF1CEAD4
:1004DC00D15392EA0C0F93EA0C0F69D0A2EB0302F2
:1004EC0080EA010C49024FEA402037D04FF080538C
:1004FC0043EA111143EA10130CF000408B4238BF51
:10050C005B0042F17D024FF4000C8B4224BF5B1A5E
:10051C0040EA0C00B3EB510F24BFA3EB510340EAAC
:10052C005C00B3EB910F24BFA3EB910340EA9C005A
:10053C00B3EBD10F24BFA3EBD10340EADC001B01CA
:10054C0018BF5FEA1C1CE0D1FD2A3FF650AF8B426E
:10055C0040EBC25008BF20F0010070470CF0004C7B
:10056C004CEA50207F32C2BFD2F1FF0340EAC250A6
:10057C00704740F400004FF00003013A37E792F067
:10058C00000F00F0004C02BF400010F4000F013AC5
:10059C00F9D040EA0C0093F0000F01F0004C02BFC0
:1005AC00490011F4000F013BF9D041EA0C0195E729
:1005BC000CEAD15392EA0C0F08D142027FF47DAFC2
:1005CC0093EA0C0F7FF470AF084676E793EA0C0FB2
:1005DC0004D14B023FF44CAF08466EE730F0004CB0
:1005EC0018BF31F0004CCAD130F000427FF45CAF40
:1005FC0031F000437FF43CAF5FE700BF38B50E4BE2
:10060C00054618784FF47A73B3FBF0F30B4A106875
:10061C00B0FBF3F000F022FC044658B90F2D09D8BA
:10062C00024629464FF0FF3000F0D6FB044B204623
:10063C001D6038BD012038BD0000002008000020DE
:10064C0004000020074A08B51368032043F0100388
:10065C00136000F0AFFB0020FFF7D0FF01F06CFA45
:10066C00002008BD00200240034A044B11681B788F
:10067C000B441360704700BF2800002000000020CE
:10068C00014B1868704700BF28000020436A10B562
:10069C009A6A12F0500F1BD19A6A42F400729A6255
:1006AC001A68926802F46022B2F5602F0CD11A7BA2
:1006BC0052B99A6A22F480729A629A6AD2045EBF24
:1006CC009A6A42F001029A62184601F057F910BD7D
:1006DC001B6ABDE810401B6B1847704708B5406A91
:1006EC00FFF7FBFF08BD7047036810B55A68044656
:1006FC00900627D51A68910724D5A26AD2065EBF48
:10070C00A26A42F40072A2629A6802F46022B2F504
:10071C00602F10D1227B72B95A6822F020025A60E5
:10072C00A36A23F48073A362A36ADB045EBFA36A8B
:10073C0043F00103A362204601F020F96FF012028E
:10074C0023681A6023685A68100630D51A68510756
:10075C002DD5A26AD2065EBFA26A42F40052A262F2
:10076C009A6802F4E042B2F5E04F0AD05A6850059C
:10077C0016D49A6802F46022B2F5602F10D1227B55
:10078C0072B95A6822F080025A60A36A23F480532B
:10079C00A362A36AD9055EBFA36A43F00103A362F7
:1007AC00204600F005FB6FF00C0223681A602368EA
:1007BC005A6852060DD51B68DB070AD5A36A20467A
:1007CC0043F48033A362FFF78EFF6FF001022368BE
:1007DC001A6010BD7047406A08B5836A43F0400345
:1007EC008362C36A43F00403C362FFF7F3FF08BDDF
:1007FC00002373B5019390F82430012B74D001239E
:10080C004D6880F82430062D02684FEA85030C6889
:10081C0025D82B441F25566B053B9D4026EA050524
:10082C0004FA03F32B435363092C4FEA44038D68FA
:10083C002FD907262344D1681E3B9E4021EA06018E
:10084C0005FA03F30B43D360A4F11003012B2BD94E
:10085C000023002280F82420184602B070BD0C2D15
:10086C000BD82B441F25166B233B9D4026EA050510
:10087C0004FA03F32B431363D6E72B441F25D66AE4
:10088C00413B9D4026EA050504FA03F32B43D36252
:10089C00CAE70726116923449E4021EA060105FA9E
:1008AC0003F30B431361CFE7104B9A4216D19368B5
:1008BC001B02CDD49368102C43F400039360C7D172
:1008CC000B4B0C4A1B68B3FBF2F20A235343019304
:1008DC00019B002BBCD0019B013BF8E7836A43F0E2
:1008EC00200383620123B4E70223B5E7002401400F
:1008FC000800002040420F00002373B501930368E9
:10090C0004469A68D20702D5002002B070BD9A68DE
:10091C0042F001029A60124B124A1B68B3FBF2F3CD
:10092C000193019BC3B9FFF7ABFE064623689D6894
:10093C0015F00105E8D1FFF7A3FE801B0228F5D9BD
:10094C00A36A84F8245043F01003A362E36A0120E5
:10095C0043F00103E362D8E7019B013BE0E700BFF2
:10096C000800002040420F0090F8243010B5012BF5
:10097C00044658D0012380F82430FFF7BDFF00282F
:10098C004DD1A36A294A23F4706323F0010343F485
:10099C008073A3622368934204D125494A6812F4F8
:1009AC00702F32D1A26A22F48012A2625A685205C8
:1009BC0041BFA26A22F4405242F48052A262A26A5F
:1009CC0012F480521CBFE26A22F00602E26200229C
:1009DC0084F824206FF002021A605A6842F0200258
:1009EC005A609A6802F46022B2F5602F13D10F4A54
:1009FC00934205D1A2F58062526812F4702F0AD18D
:100A0C009A6842F4A0029A6010BDA26A42F4801265
:100A1C00A2624A68CBE79A6842F48012F3E700239B
:100A2C0084F8243010BD022010BD00BF0028014006
:100A3C00002401402DE9D8419046404B0268044601
:100A4C009A420F4602D03E498A4203D15B6813F4A6
:100A5C00702F6ED194F82430012B6CD001232046DA
:100A6C0084F82430FFF748FF064600285DD1A06AC1
:100A7C00216820F47060324B20F0010040F480704B
:100A8C009942A06204D12D4A536813F4702F3ED1C1
:100A9C00A36A23F48013A3624B685A0505D5A36A95
:100AAC0023F4405343F48053A362A36A206A13F4E3
:100ABC00805318BFE36A3A4618BF23F00603E3627B
:100ACC00002384F824301F4B4C3183621E4BC362CD
:100ADC001E4B03636FF0020341F84C3C51F8443C4D
:100AEC0043F4807341F8443C434600F0FDF923681D
:100AFC009A6802F46022B2F5602F9A680CBF42F437
:100B0C00A00242F480129A603046BDE8D881A36AF4
:100B1C0043F48013A36253685B0541BFA06A20F4C1
:100B2C00405040F48050A062BFE7002384F824308A
:100B3C00EAE70126E8E70226E6E700BF00240140C9
:100B4C000028014099060008E9060008E3070008A0
:100B5C0038B5036804469A68D20701D4002038BD22
:100B6C009A6822F001029A60FFF78AFD0546236815
:100B7C009B68DB07F2D5FFF783FD401B0228F6D9F3
:100B8C00A36A012043F01003A362E36A43F001035C
:100B9C00E36238BD70B50446002871D0836A23B96E
:100BAC00C36280F8243000F0E9FF2046FFF7D0FF45
:100BBC00A36A13F0100FA36A64D1002862D1E16913
:100BCC0023F48853626823F0020343F002030A43C0
:100BDC00A168A362237BB1F5807F42EA430238D03F
:100BEC00012914BF06464FF48076257D012D07D1CF
:100BFC00002B30D1A369013B46EA433545F400662E
:100C0C002368B1F5807F5D6825F4694545EA0605E2
:100C1C005D609E681D4D05EA060545EA02059D606E
:100C2C0001D0012920D1216901390905DD6A25F49A
:100C3C0070052943D9629968154B0B409A4215D11E
:100C4C000023E362A36A23F0030343F00103A362CE
:100C5C0070BD0E46C9E7A36A43F02003A362E36AA2
:100C6C0043F00103E362CBE70021DFE7A36A23F043
:100C7C00120343F01003A362E36A43F00103E3623F
:100C8C00012070BD43F01003A362F9E7FDF7E1FF0B
:100C9C00FE0E1FFF90F8243010B5012B04461DD01A
:100CAC00012380F82430FFF753FF80B92268206AB3
:100CBC00936823F48073936000F053F9A36A50B9DE
:100CCC0023F4885323F0010343F00103A3620023B0
:100CDC0084F8243010BD43F04003F7E7022010BD28
:100CEC00002373B5019390F824300446012B5AD09D
:100CFC00012380F82430FFF72BFF0546002832D162
:100D0C00A36A022023F4885323F0020343F0020366
:100D1C00A362264B1E6800F0BBFDB6FBF0F0400052
:100D2C000190019B1BBB2046FFF7E6FD22689368F0
:100D3C0043F008039360FFF7A3FC064623689A6808
:100D4C00120718D49A6842F004029A60FFF798FCD4
:100D5C00064623689B685B071FD4A36A23F0030332
:100D6C0043F00103A362002384F8243012E0019BBA
:100D7C00013B0193D5E7FFF783FC801B0A28DDD9E3
:100D8C00A36A012523F0120343F01003A36200238E
:100D9C0084F82430284602B070BDFFF771FC801B2C
:100DAC000A28D6D9ECE70225F4E700BF080000209A
:100DBC0070470000074A0002D36800F4E06023F497
:100DCC00E0631B041B0C43F0BF6343F40033034389
:100DDC00D360704700ED00E0174B30B5DC68C4F30E
:100DEC000224C4F10703251D042B28BF0423062D60
:100DFC004FF0010598BF002405FA03F303F1FF330C
:100E0C0088BF033C1940A14005FA04F4013C224080
:100E1C00002842EA01024FEA0212A9BF00F1604029
:100E2C00064BD2B200F56140BBBF00F00F00D2B24E
:100E3C0080F800231A5430BD00ED00E014ED00E002
:100E4C00002808DB0123420900F01F0003FA00F020
:100E5C00014B43F82200704700E100E00138B0F18B
:100E6C00807F0AD2F021064B064A586082F8231084
:100E7C000020072298601A6070470120704700BF5D
:100E8C0010E000E000ED00E010B530B31422016872
:100E9C00134B84680B44B3FBF2F39B000364114BBC
:100EAC000A68C363436822F47F522343C46822F068
:100EBC003002234304692343446923438469234355
:100ECC00C469234313430B600122002380F82120C3
:100EDC00836380F82030184610BD012010BD00BF80
:100EEC00F8FFFDBF00000240F0B590F82040012C47
:100EFC0035D0012490F8215080F82040A5424FF0C5
:100F0C0000064FF0020428D180F821400468866363
:100F1C002668076C26F001062660C66BBD4075601E
:100F2C00636043680568102BC36A0BBFA260A160A5
:100F3C00E160E2604BB1236843F00E0323602B6841
:100F4C00002043F001032B60F0BD236823F0040361
:100F5C002360236843F00A03F0E780F82060022046
:100F6C00F0BD90F82130022B06D0042383630023BC
:100F7C0080F82030012070470368C16B1A6822F09A
:100F8C000E021A601A6822F001021A600122036C28
:100F9C0002FA03F34B60002380F8212080F8203004
:100FAC001846704770B40425C66B026C346803682D
:100FBC0095402542196832D04D0730D51A689606EF
:100FCC005EBF1A6822F004021A603E4A934219D09E
:100FDC001432934218D01432934217D014329342E5
:100FEC0017D01432934217D0143293420CBF4FF4E3
:100FFC0080034FF08063344A5360C36A002B5ED089
:10100C0070BC18470423F6E74023F4E74FF48063E1
:10101C00F1E74FF48043EEE74FF48023EBE7022532
:10102C009540254235D08D0733D51A68940606D4E1
:10103C001A6822F00A021A60012280F82120214A43
:10104C00934219D01432934218D01432934217D0D1
:10105C001432934217D01432934217D01432934265
:10106C000CBF4FF400134FF00073174A536000236A
:10107C0080F82030836AC1E70223F6E72023F4E7E7
:10108C004FF40073F1E74FF40053EEE74FF40033E5
:10109C00EBE708259540254211D009070FD51968B3
:1010AC0021F00E011960012303FA02F272608363CE
:1010BC0080F82130002380F82030036B9EE770BC51
:1010CC00704700BF08000240000002402DE9F74FB6
:1010DC0000242646664BDFF8A8E1DFF8A8C10A68B1
:1010EC0032FA06F502D103B0BDE8F08F4FF00108DB
:1010FC0008FA06F802EA080290457FD14D68122DD5
:10110C0000F0AA8000F28380022D00F0A28077D834
:10111C00002D00F08980012D00F099804FF00F090F
:10112C00FF2A93BF824606F18045083DD0F800B0F7
:10113C0092BFB500D0F804B0AD0009FA05F82BEA5F
:10114C00080804FA05F588BF00F1040A48EA050509
:10115C00CAF80050D1F804A01AF0805F4ED0454D6B
:10116C00444FAD6926F0030845F00105BD61BD692A
:10117C0008F1804805F00105019508F5803806F066
:10118C00030B019D4FEA8B0BD8F8085009FA0BF9A9
:10119C0025EA0909384DA84263D005F58065A842B7
:1011AC0061D005F58065A8425FD005F58065A84241
:1011BC000CBF0325042505FA0BF545EA0905C8F80B
:1011CC0008501D681AF4803F14BF154395431D60E9
:1011DC005D681AF4003F14BF154395435D609D682C
:1011EC001AF4801F14BF154395439D60DD681AF4F3
:1011FC00001F14BF2A4325EA0202DA6001366EE7AB
:10120C00032D22D0112D89D1CC68043486E71B4FD5
:10121C00BD4209D012D8DFF870904D4504D009F5C5
:10122C0080394D457FF47AAF8C68C4B1012C0CBF6A
:10123C00C0F81080C0F8148008246FE77545F3D00F
:10124C006545F1D0DFF84490EBE7002466E7CC6805
:10125C0064E7CC68083461E7CC680C345EE704249E
:10126C005CE70025A7E70125A5E70225A3E700BF5A
:10127C000004014000100240000801400000211051
:10128C00000031100000321000001110000022107C
:10129C002DE9F341054608B901203CE00368DB0762
:1012AC0010D42B689F075DD42B68190700F194802C
:1012BC002B685A0700F1BE80E869002840F02C81A9
:1012CC00002028E08F4C636803F00C03042B07D03C
:1012DC00636803F00C03082B09D16368DE0306D5A1
:1012EC0023689C03DDD56B68002BDAD1D4E76B68DF
:1012FC00B3F5803F12D1236843F480332360FFF7AA
:10130C00BFF9064623689803CBD4FFF7B9F9801BC5
:10131C006428F7D9032002B0BDE8F0819BB923689B
:10132C0023F480332360236823F480232360FFF7A6
:10133C00A7F9064623689903B3D5FFF7A1F9801BDB
:10134C006428F7D9E6E7B3F5A02F236803D143F45B
:10135C0080232360CFE723F480332360236823F4B6
:10136C008023CBE7674C636813F00C0F07D06368DE
:10137C0003F00C03082B10D16368DA030DD4236837
:10138C009B0702D52B69012B86D123686A6923F050
:10139C00F80343EAC203236086E72A695A4B6AB111
:1013AC0001221A60FFF76CF9064623689F07ECD4FC
:1013BC00FFF766F9801B0228F7D9ABE71A60FFF735
:1013CC005FF90646236898077FF56EAFFFF758F96B
:1013DC00801B0228F6D99DE7AA694A4C4B4BDAB11F
:1013EC0001221A60FFF74CF90646636A9B070DD57C
:1013FC004FF4FA52464B1B68B3FBF2F3019300BF58
:10140C00019B5A1E0192002BF9D151E7FFF738F9D5
:10141C00801B0228E9D97DE71A60FFF731F90646EF
:10142C00636A9F077FF544AFFFF72AF9801B0228F8
:10143C00F6D96FE7334CE369D80024D40127E3696C
:10144C0043F08053E361E36903F080530093009B06
:10145C00304E3368D90518D5EB68012B26D1236A99
:10146C0043F001032362FFF70BF941F28836804603
:10147C00236A9B073FD5002F3FF41EAFE36923F08F
:10148C008053E36118E70027E2E7336843F4807385
:10149C003360FFF7F5F880463368DA05DCD4FFF7E4
:1014AC00EFF8A0EB08006428F6D933E7ABB9236A50
:1014BC0041F2883823F001032362236A23F00403EA
:1014CC002362FFF7DDF80646236A9807D3D5FFF7AA
:1014DC00D7F8801B4045F7D91CE7052B236A03D1AD
:1014EC0043F004032362BAE723F001032362236A67
:1014FC0023F00403B6E7FFF7C3F8A0EB0800B042F3
:10150C00B6D907E700100240000042428004424274
:10151C0008000020007000402A4B5A681C4602F05C
:10152C000C02082A3DD00023274E022833602BD111
:10153C00FFF7A6F80746236899011FD42B6AB3F569
:10154C00803F05D16268A96822F400320A436260C8
:10155C00696A62680B4322F47412134363600123BB
:10156C003360FFF78DF8054623689A013FF5A8AE66
:10157C00FFF786F8401B0228F6D9CBE6FFF780F878
:10158C00C01B0228D7D9C5E6FFF77AF805462368B1
:10159C009B017FF595AEFFF773F8401B0228F6D937
:1015AC00B8E601283FF4B7AE58682B6A00F48032D5
:1015BC009A427FF471AE6B6A00F47010C01A18BFB7
:1015CC000120A8E6001002406000424230B5194BE1
:1015DC0087B002AC03F1100522461868596808332D
:1015EC0003C2AB421446F7D101238DF80430022319
:1015FC0011498DF805304B6803F00C02082A17D1FD
:10160C00C3F3834206A80244DB0312F8102C0CD55A
:10161C004B680A48C3F34043504306AA134413F8DB
:10162C00143CB0FBF3F007B030BD05485043FAE76B
:10163C000248F8E7641D00080010024000127A000E
:10164C0000093D002DE9F0410D46044610B901207A
:10165C00BDE8F081454A136803F007038B4229D398
:10166C0021688E0731D4CA0744D4404A136803F06A
:10167C0007039D4267D322683D4D12F0040F6ED1D3
:10168C00130706D56B68226923F4605343EAC2033F
:10169C006B60FFF79BFF6B68364AC3F30313D35C95
:1016AC00D840354B1860354B1868FEF7A7FF002063
:1016BC00BDE8F081136823F007030B431360136834
:1016CC0003F007039942C2D1CAE7294B11F0040F6A
:1016DC001EBF5A6842F4E0625A60080742BF5A685B
:1016EC0042F460525A605A68A06822F0F002024339
:1016FC005A60B8E762681E4E012A33681BD113F496
:10170C00003FA4D0736841F2883823F003031343DD
:10171C007360FEF7B5FF07467368626803F00C034D
:10172C00B3EB820FA1D0FEF7ABFFC01B4045F3D942
:10173C000320BDE8F081022A02D113F0007FE0E71C
:10174C0013F0020FDDE7136823F007032B4313603C
:10175C00136803F007039D427FF479AF8BE76B6846
:10176C00E16823F4E0630B436B6089E700200240DF
:10177C0000100240841D0008080000200400002016
:10178C00044B054A5B68C3F3C223D35C034A10685D
:10179C00D840704700100240941D0008080000203B
:1017AC0003682DE9F341D907054620D5354CE3698B
:1017BC00DA0032D40127E36943F08053E361E36933
:1017CC0003F080530193019B2F4E3368DB0526D524
:1017DC00236A13F4407336D1236A6A6823F4407386
:1017EC00134323621FB1E36923F08053E36128683C
:1017FC00830706D5234AA968536823F440430B4357
:10180C00536010F010001BD01E4AE968536800208A
:10181C0023F480030B43536012E00027D4E73368B2
:10182C0043F480733360FEF72BFF80463368D80592
:10183C00CED4FEF725FFA0EB08006428F6D90320D0
:10184C0002B0BDE8F0816A6802F440729342C3D0E2
:10185C0001200E4A236A1060002023F440711060AE
:10186C002162D907B8D5FEF70BFF41F2883806463E
:10187C00236A9A07B0D4FEF703FF801B4045F7D9C3
:10188C00DDE700BF001002400070004040044242FF
:10189C0070B50446354B86B002AD03F110062A46EE
:1018AC0018685968083303C2B3421546F7D10123AF
:1018BC008DF8043002239C428DF8053047D0102C53
:1018CC0017D0012C4FD140F20231294A136A19402A
:1018DC00B1F5817F44D003F44073B3F5007F2DD173
:1018EC0049F64040536A13F0020F08BF002006B0BF
:1018FC0070BD1F4B5968186810F08070F7D0C1F399
:10190C00834206A8024412F8100CCA0341BF5A685D
:10191C0006A9C2F34042521844BF12F8141C154ACF
:10192C005B684CBFB2FBF1F2134A5B0202FB00F0A6
:10193C00DDD403234000B0FBF3F0D8E7B3F5407FD0
:10194C0011D113684FF2244013F4003FCDE7FFF799
:10195C0017FF074B5B68C3F3813301335B00EAE786
:10196C004FF40040C3E70020C1E700BF741D00081E
:10197C000010024000127A0000093D0038B50268E0
:10198C00124B9A4221D1124C1248FFF783F920884E
:10199C00114D80B2FEF78EFC1049FEF7DFFC1049AA
:1019AC00FEF790FD2860608880B2FEF783FC0B493F
:1019BC00FEF7D4FC0A49FEF785FD21466860022239
:1019CC00BDE838400348FFF735B838BD0024014066
:1019DC00380000203C00002030000020F628544045
:1019EC0000F07F45282210B594B00DEB02000021C9
:1019FC0000F09EF9142200210DEB020000F098F982
:101A0C000021102201A800F093F94FF48033022436
:101A1C0001220B9312934FF4E0130AA80A920E9230
:101A2C0013931194FFF734FC0F234FF4806205934A
:101A3C000023214605A80793089209930694FFF703
:101A4C0001FE4FF4004301A801940393FFF7A8FE95
:101A5C0014B010BD7FB5FEF7F5FDFFF7C3FF304B9B
:101A6C000B209A692F4C42F020029A619A69022548
:101A7C0002F020020192019A9A6942F004029A61E2
:101A8C009A6902F004020292029A5A6942F0010227
:101A9C005A6100225B69114603F001030093009B1D
:101AAC00FFF79AF90B20FFF7CBF91F4A00232260AE
:101ABC004FF48072A2604FF460222046E2612373DF
:101ACC00237563600393049305932561FFF762F814
:101ADC00012303930493072303A920460593FEF7E0
:101AEC0087FE03A9204603950495FEF781FE204648
:101AFC00FFF7F6F82A460D492046FEF79BFF2046D5
:101B0C00FEF732FFFEF7BCFD094C2060FEF7B8FD76
:101B1C002368C01AB0F57A7FF8D3FEF7B1FDF4E76D
:101B2C00001002403C00002000240140380000203E
:101B3C002C000020704700000E4B82B09A6942F0D6
:101B4C0001029A619A6902F001020092009ADA6924
:101B5C0042F08052DA61DB69074A03F0805301934B
:101B6C00019B536823F0E06343F00073536002B0B1
:101B7C00704700BF001002400000014030B5054620
:101B8C0087B01022002102A800F0D2F82A68214B5D
:101B9C009A423CD103F56C439A691F4842F4007297
:101BAC009A619A6902A902F400720092009A9A69E9
:101BBC001A4C42F004029A619B6903F004030193EE
:101BCC00019B0623029303230393FFF77FFA8022E2
:101BDC00E2604FF4807222614FF48062104B6261BC
:101BEC0023602022002320466360A360A261E3618E
:101BFC00FFF74AF908B1FFF79DFF00222C62122073
:101C0C0011466562FFF7E8F81220FFF719F907B0E3
:101C1C0030BD00BF00240140000801406C000020D2
:101C2C00080002407047FEE7FEE7FEE7FEE770475C
:101C3C0070477047FEF718BD0148FFF7B3B900BFF6
:101C4C006C0000200148FEF74FBD00BF3C00002097
:101C5C000F4B1A6842F001021A6059680D4A0A408B
:101C6C005A601A6822F0847222F480321A601A6860
:101C7C0022F480221A605A6822F4FE025A604FF451
:101C8C001F029A604FF00062034B9A60704700BFCE
:101C9C00001002400000FFF800ED00E0002103E01E
:101CAC000B4B5B58435004310A480B4B42189A4279
:101CBC00F6D30A4A02E0002342F8043B084B9A424E
:101CCC00F9D3FFF7C5FF00F00FF8FFF7C3FE70471D
:101CDC00A41D0008000000200C0000200C000020B7
:101CEC00B0000020FEE7000070B500250C4E0D4C36
:101CFC00A41BA410A54209D100F022F800250A4E1D
:101D0C000A4CA41BA410A54205D170BD56F8253071
:101D1C0098470135EEE756F8253098470135F2E73C
:101D2C009C1D00089C1D00089C1D0008A01D00089F
:101D3C0003460244934200D1704703F8011BF9E7B4
:101D4C00F8B500BFF8BC08BC9E467047F8B500BF9C
:081D5C00F8BC08BC9E4670476C
:101D640002030405060708090A0B0C0D0E0F1010D8
:101D740002030405060708090A0B0C0D0E0F1010C8
:101D84000000000000000000010203040607080927
:081D940000000000010203043D
:041D9C003101000809
:041DA0000D01000829
:0C1DA40001000000100000000024F4000A
:0400000508001CA92A
:00000001FF
