:020000040800F2
:100000000050002095140008111400081314000873
:100010001514000817140008191400080000000047
:100020000000000000000000000000001B14000899
:100030001D140008000000001F140008211400080F
:10004000DD140008DD140008DD140008DD140008CC
:10005000DD140008DD140008DD140008DD140008BC
:10006000DD140008DD140008DD140008DD140008AC
:10007000DD140008DD140008251400083114000800
:10008000DD140008DD140008DD140008DD1400088C
:10009000DD140008DD140008DD140008DD1400087C
:1000A000DD140008DD140008DD140008DD1400086C
:1000B000DD140008DD140008DD140008DD1400085C
:1000C000DD140008DD140008DD140008DD1400084C
:1000D000DD1400083D140008DD140008DD140008DC
:1000E000DD140008DD140008DD1400080000000025
:1000F0000000000000000000000000000000000000
:0C01000000000000000000005FF808F1A3
:10010C0010B5054C237833B9044B13B10448AFF345
:10011C0000800123237010BD24000020000000008B
:10012C003815000808B5034B1BB103490348AFF35E
:10013C00008008BD000000002800002038150008D1
:10014C0038B50E4B054618784FF47A73B3FBF0F3C1
:10015C000B4A1068B0FBF3F000F08EF8044658B967
:10016C000F2D09D8024629464FF0FF3000F042F817
:10017C00044B20461D6038BD012038BD0000002016
:10018C002000002004000020074A08B51368032053
:10019C0043F01003136000F01BF80020FFF7D0FFB2
:1001AC0001F09AF8002008BD00200240034A044BDD
:1001BC0011681B780B441360704700BF400000208F
:1001CC0000000020014B1868704700BF4000002061
:1001DC00074A0002D36800F4E06023F4E0631B04D8
:1001EC001B0C43F0BF6343F400330343D3607047ED
:1001FC0000ED00E0174B30B5DC68C4F30224C4F109
:10020C000703251D042B28BF0423062D4FF00105E1
:10021C0098BF002405FA03F303F1FF3388BF033CB6
:10022C001940A14005FA04F4013C2240002842EA9E
:10023C0001024FEA0212A9BF00F16040064BD2B294
:10024C0000F56140BBBF00F00F00D2B280F8002374
:10025C001A5430BD00ED00E014ED00E0002808DB7E
:10026C000123420900F01F0003FA00F0014B43F890
:10027C002200704700E100E00138B0F1807F0AD223
:10028C00F021064B064A586082F823100020072202
:10029C0098601A6070470120704700BF10E000E0C2
:1002AC0000ED00E010B530B314220168134B8468E4
:1002BC000B44B3FBF2F39B000364114B0A68C3635A
:1002CC00436822F47F522343C46822F03002234354
:1002DC00046923434469234384692343C469234346
:1002EC0013430B600122002380F82120836380F8E4
:1002FC002030184610BD012010BD00BFF8FFFDBF17
:10030C0000000240F0B590F82040012C35D00124BB
:10031C0090F8215080F82040A5424FF000064FF095
:10032C00020428D180F82140046886632668076C93
:10033C0026F001062660C66BBD407560636043689D
:10034C000568102BC36A0BBFA260A160E160E2607C
:10035C004BB1236843F00E0323602B68002043F05D
:10036C0001032B60F0BD236823F004032360236892
:10037C0043F00A03F0E780F820600220F0BD000093
:10038C0090F8213010B5022B03D004238363012095
:10039C0010BD03681A6822F00E021A601A6822F067
:1003AC0001021A60184A93421FD0143293421ED095
:1003BC00143293421DD0143293421DD01432934206
:1003CC001DD0143293420CBF4FF480134FF0807346
:1003DC000E4A00245360012380F82130436B80F8CF
:1003EC0020407BB19847204610BD0123F0E7102335
:1003FC00EEE74FF48073EBE74FF48053E8E74FF4EC
:10040C008033E5E7184610BD0800024000000240AA
:10041C0070B40425C66B026C3468036895402542A1
:10042C00196832D04D0730D51A6896065EBF1A6827
:10043C0022F004021A603E4A934219D014329342BD
:10044C0018D01432934217D01432934217D014326E
:10045C00934217D0143293420CBF4FF480034FF0E9
:10046C008063344A5360C36A002B5ED070BC18475B
:10047C000423F6E74023F4E74FF48063F1E74FF4ED
:10048C008043EEE74FF48023EBE7022595402542AD
:10049C0035D08D0733D51A68940606D41A6822F025
:1004AC000A021A60012280F82120214A934219D0B5
:1004BC001432934218D01432934217D01432934210
:1004CC0017D01432934217D0143293420CBF4FF40E
:1004DC0000134FF00073174A5360002380F820304C
:1004EC00836AC1E70223F6E72023F4E74FF4007395
:1004FC00F1E74FF40053EEE74FF40033EBE7082538
:10050C009540254211D009070FD5196821F00E012D
:10051C001960012303FA02F27260836380F82130C0
:10052C00002380F82030036B9EE770BC704700BF3F
:10053C0008000240000002402DE9F74F0024264637
:10054C00664BDFF8A8E1DFF8A8C10A6832FA06F5B5
:10055C0002D103B0BDE8F08F4FF0010808FA06F89D
:10056C0002EA080290457FD14D68122D00F0AA8056
:10057C0000F28380022D00F0A28077D8002D00F0CD
:10058C008980012D00F099804FF00F09FF2A93BF4D
:10059C00824606F18045083DD0F800B092BFB50008
:1005AC00D0F804B0AD0009FA05F82BEA080804FAF3
:1005BC0005F588BF00F1040A48EA0505CAF80050A1
:1005CC00D1F804A01AF0805F4ED0454D444FAD6970
:1005DC0026F0030845F00105BD61BD6908F18048AE
:1005EC0005F00105019508F5803806F0030B019D17
:1005FC004FEA8B0BD8F8085009FA0BF925EA0909D0
:10060C00384DA84263D005F58065A84261D005F548
:10061C008065A8425FD005F58065A8420CBF032514
:10062C00042505FA0BF545EA0905C8F808501D68BC
:10063C001AF4803F14BF154395431D605D681AF48E
:10064C00003F14BF154395435D609D681AF4801FED
:10065C0014BF154395439D60DD681AF4001F14BF49
:10066C002A4325EA0202DA6001366EE7032D22D016
:10067C00112D89D1CC68043486E71B4FBD4209D0BB
:10068C0012D8DFF870904D4504D009F580394D45EE
:10069C007FF47AAF8C68C4B1012C0CBFC0F8108009
:1006AC00C0F8148008246FE77545F3D06545F1D088
:1006BC00DFF84490EBE7002466E7CC6864E7CC688D
:1006CC00083461E7CC680C345EE704245CE7002551
:1006DC00A7E70125A5E70225A3E700BF0004014019
:1006EC0000100240000801400000211000003110F1
:1006FC000000321000001110000022100AB101613C
:10070C0070470904FBE700002DE9F341054608B9E1
:10071C0001203CE00368DB0710D42B689F075DD4F5
:10072C002B68190700F194802B685A0700F1BE80E2
:10073C00E869002840F02C81002028E08F4C636889
:10074C0003F00C03042B07D0636803F00C03082B95
:10075C0009D16368DE0306D523689C03DDD56B687D
:10076C00002BDAD1D4E76B68B3F5803F12D1236844
:10077C0043F480332360FFF725FD06462368980376
:10078C00CBD4FFF71FFD801B6428F7D9032002B0E0
:10079C00BDE8F0819BB9236823F480332360236880
:1007AC0023F480232360FFF70DFD0646236899038D
:1007BC00B3D5FFF707FD801B6428F7D9E6E7B3F53F
:1007CC00A02F236803D143F480232360CFE723F4C5
:1007DC0080332360236823F48023CBE7674C636862
:1007EC0013F00C0F07D0636803F00C03082B10D127
:1007FC006368DA030DD423689B0702D52B69012BA0
:10080C0086D123686A6923F0F80343EAC2032360A4
:10081C0086E72A695A4B6AB101221A60FFF7D2FCAB
:10082C00064623689F07ECD4FFF7CCFC801B0228FC
:10083C00F7D9ABE71A60FFF7C5FC064623689807A3
:10084C007FF56EAFFFF7BEFC801B0228F6D99DE743
:10085C00AA694A4C4B4BDAB101221A60FFF7B2FC81
:10086C000646636A9B070DD54FF4FA52464B1B683C
:10087C00B3FBF2F3019300BF019B5A1E0192002BB4
:10088C00F9D151E7FFF79EFC801B0228E9D97DE7DF
:10089C001A60FFF797FC0646636A9F077FF544AF23
:1008AC00FFF790FC801B0228F6D96FE7334CE36905
:1008BC00D80024D40127E36943F08053E361E36952
:1008CC0003F080530093009B304E3368D90518D544
:1008DC00EB68012B26D1236A43F001032362FFF757
:1008EC0071FC41F288368046236A9B073FD5002F66
:1008FC003FF41EAFE36923F08053E36118E7002750
:10090C00E2E7336843F480733360FFF75BFC8046A7
:10091C003368DA05DCD4FFF755FCA0EB080064283B
:10092C00F6D933E7ABB9236A41F2883823F00103D7
:10093C002362236A23F004032362FFF743FC064679
:10094C00236A9807D3D5FFF73DFC801B4045F7D9A8
:10095C001CE7052B236A03D143F004032362BAE797
:10096C0023F001032362236A23F00403B6E7FFF7A5
:10097C0029FCA0EB0800B042B6D907E700100240F2
:10098C0000004242800442422000002000700040DF
:10099C002A4B5A681C4602F00C02082A3DD0002350
:1009AC00274E022833602BD1FFF70CFC0746236837
:1009BC0099011FD42B6AB3F5803F05D16268A968F1
:1009CC0022F400320A436260696A62680B4322F4C3
:1009DC0074121343636001233360FFF7F3FB054686
:1009EC0023689A013FF5A8AEFFF7ECFB401B0228E9
:1009FC00F6D9CBE6FFF7E6FBC01B0228D7D9C5E634
:100A0C00FFF7E0FB054623689B017FF595AEFFF7EA
:100A1C00D9FB401B0228F6D9B8E601283FF4B7AE43
:100A2C0058682B6A00F480329A427FF471AE6B6A7C
:100A3C0000F47010C01A18BF0120A8E60010024084
:100A4C006000424230B5194B87B002AC03F110057F
:100A5C00224618685968083303C2AB421446F7D1D2
:100A6C0001238DF80430022311498DF805304B68B1
:100A7C0003F00C02082A17D1C3F3834206A80244E0
:100A8C00DB0312F8102C0CD54B680A48C3F3404317
:100A9C00504306AA134413F8143CB0FBF3F007B010
:100AAC0030BD05485043FAE70248F8E750150008F6
:100ABC000010024000127A0000093D002DE9F041BF
:100ACC000D46044610B90120BDE8F081454A136873
:100ADC0003F007038B4229D321688E0731D4CA0750
:100AEC0044D4404A136803F007039D4267D322683D
:100AFC003D4D12F0040F6ED1130706D56B682269B9
:100B0C0023F4605343EAC2036B60FFF79BFF6B68EF
:100B1C00364AC3F30313D35CD840354B1860354BBE
:100B2C001868FFF70DFB0020BDE8F081136823F077
:100B3C0007030B431360136803F007039942C2D1F8
:100B4C00CAE7294B11F0040F1EBF5A6842F4E06249
:100B5C005A60080742BF5A6842F460525A605A6899
:100B6C00A06822F0F00202435A60B8E762681E4E99
:100B7C00012A33681BD113F4003FA4D0736841F2EF
:100B8C00883823F0030313437360FFF71BFB0746FE
:100B9C007368626803F00C03B3EB820FA1D0FFF70C
:100BAC0011FBC01B4045F3D90320BDE8F081022A9C
:100BBC0002D113F0007FE0E713F0020FDDE71368BA
:100BCC0023F007032B431360136803F007039D42C4
:100BDC007FF479AF8BE76B68E16823F4E0630B4338
:100BEC006B6089E70020024000100240601500088D
:100BFC002000002004000020044B054A5B68C3F36E
:100C0C000223D35C034A1068D8407047001002409E
:100C1C007015000820000020044B054A5B68C3F3E4
:100C2C00C223D35C034A1068D840704700100240BE
:100C3C0070150008200000200368DA6822F4907216
:100C4C00DA605A6922F001025A61202380F83A30A6
:100C5C007047000038B505460368C1681A69192445
:100C6C0022F440520A431A6182680069D96802432F
:100C7C00686921F4B05121F00C0102430A43DA6097
:100C8C005A69A96922F440720A435A610D4A934287
:100C9C0014D1FFF7C1FF60436C686422A400B0FB61
:100CAC00F4F0B0FBF2F402FB14031B013233B3FB80
:100CBC00F2F3296803EB04138B6038BDFFF79CFF3C
:100CCC00E9E700BF0038014010B5044640B390F886
:100CDC00393003F0FF021BB980F8382000F01EFBFE
:100CEC002423226884F83930D368204623F4005337
:100CFC00D360FFF7AFFF236800201A6922F49042FB
:100D0C001A615A6922F02A025A61DA6842F40052D6
:100D1C00DA602023E06384F8393084F83A3010BD6F
:100D2C00012010BD90F83A30202B20D1E9B1E2B16E
:100D3C0090F83830012B1AD0C285828500232222EC
:100D4C00C36380F83A2002688162D16880F8383039
:100D5C0041F48071D1605169184641F00101516133
:100D6C00D16841F02001D16070470120704702200A
:100D7C007047000038B50446134694F83920202AF1
:100D8C002AD139B333B394F83820012A24D0012264
:100D9C00002584F838202122E384206BE56384F855
:100DAC0039200E4AA384216282620D4A4563C262D5
:100DBC000C4A026322680432FFF7A4FA6FF0400277
:100DCC00236828461A605A6984F8385042F0800229
:100DDC005A6138BD012038BD022038BDF70D00081E
:100DEC00250E0008AD0E0008704708B50368426A6E
:100DFC001B6813F020030AD1D38413685A6922F0BC
:100E0C0080025A61DA6842F04002DA6008BD10468E
:100E1C00FFF7EAFF08BD704708B5406AFFF7FBFF14
:100E2C0008BD90F83A3010B5222B36D18368016991
:100E3C00B3F5805F0268836A23D15268E9B9C2F3C3
:100E4C00080223F8022B8362C48D013CA4B2C48532
:100E5C008CB90368DA6822F02002DA60DA6822F4CE
:100E6C008072DA605A6922F001025A61202380F8FC
:100E7C003A3000F0E5F8002010BDD2B223F8012B77
:100E8C00E1E721B9591C526881621A70DCE752689B
:100E9C00591C816202F07F02F7E7022010BD7047F7
:100EAC00416A08B50B685A6991F8390021280AD1B2
:100EBC00120608D50022CA84DA6822F0C002DA6071
:100ECC00202281F839205B6991F83A20222A06D138
:100EDC005B0604D500230846CB85FFF7ADFECB6B34
:100EEC00084643F01003CB63FFF7D9FF08BD0000A1
:100EFC00036870B51A6804461607D9685D6907D18E
:100F0C0096065AD58D0658D5BDE87040FFF789BFB7
:100F1C0015F0010502D111F4907F4ED0D30705D501
:100F2C00CE0542BFE36B43F00103E363500704D5E6
:100F3C001DB1E36B43F00203E363930704D51DB1CA
:100F4C00E36B43F00403E363160704D51DB1E36BB5
:100F5C0043F00803E363E36B002B66D0950604D5DE
:100F6C00880602D52046FFF75CFF236820465D69A2
:100F7C00E26B110702D415F040051AD0FFF75CFEA6
:100F8C0023685A69520610D55A69606B22F04002E8
:100F9C005A6150B1254B4363FFF7F2F9002844D056
:100FAC00606BBDE87040436B18472046FFF777FF36
:100FBC0070BDFFF774FFE56370BD160627D50D06EF
:100FCC0025D594F83920212A2FD1A268B2F5805F5B
:100FDC00226A17D11188C1F308015960216979B9C6
:100FEC0002322262E28C013A92B2E284EAB9DA6805
:100FFC0022F08002DA60DA6842F04002DA6070BDFA
:10100C000132EEE7511C216212785A60EAE7500671
:10101C000BD54A0609D5DA68204622F04002DA6080
:10102C00202384F83930FFF7DFFE70BD3D10000837
:10103C0008B50023406AC385C384FFF730FF08BDA1
:10104C0038B5224B224A1C78224B0D2C2248197899
:10105C001ED054541A780132D2B21A701B78DBB2FB
:10106C0003700378092B0CD91C4C25784DB9172229
:10107C001B491C48FFF77EFE2378013323701A4B63
:10108C001D700122BDE8384010491648FFF74ABED2
:10109C000A255554197811444C7019780A440021CA
:1010AC0091701A780332D2B2027019700378092B3E
:1010BC000D4B06D91970172209490A48FFF75AFE39
:1010CC00DFE701221A70054B1970DAE746000020A1
:1010DC008C000020DC0000204500002021010020B5
:1010EC0008000020E00000202001002010B590B086
:1010FC002822002106A800F011FA0021142201A8D0
:10110C0000F00CFA4FF480330122022407930E9363
:10111C004FF4E01306A806920A920F930D94FFF772
:10112C00F3FA0F234FF4806201930023214601A8A8
:10113C000294039304920593FFF7C0FC10B010BD0A
:10114C0080B588B0FFF720F8FFF7D0FF1022564C7F
:10115C0000210DEB020000F0E1F9A369012243F03C
:10116C001003A361A3694FF4005103F01003019322
:10117C00019BA3694D4843F02003A361A36900259B
:10118C0003F020030293029BA369012643F004039E
:10119C00A361A369DFF8349103F004030393039B69
:1011AC00FFF7ACFA4FF400530493022304A93F4811
:1011BC00059606950793FFF7BFF963692A463343F3
:1011CC00636163692946334004930E20049BFFF747
:1011DC0011F80E20FFF742F829462A460F20FFF798
:1011EC0009F80F20FFF73AF84FF4E133304C314A4D
:1011FC00204684E80C000C23A560E5602561636142
:10120C00A561E561FFF760FD2B4BDFF8C4801D7015
:10121C002A4F2B4B32462B49204689F8006088F820
:10122C0000503D701D70A246FFF77CFD4E46264DCA
:10123C00C146DFF878803B7883B13378FF2B1ED022
:10124C00012B0BD194F83930202B07D199F80020C1
:10125C0029465046FFF78EFDFF2333702B784F2B1A
:10126C00E9D16B786E2B0FD1AB780A2BE3D1EB78ED
:10127C000D2BE0D14FF40053C8F81430DBE70123F9
:10128C00337000233B70E9E7662BD4D1AB78662B27
:10129C00D1D1EB780A2BCED12B790D2BCBD14FF4AE
:1012AC000053C8F81030C6E700100240001001408F
:1012BC00E000002000380140DC000020200100206C
:1012CC0021010020460000208C000020440000205A
:1012DC0045000020704700000E4B82B09A6942F026
:1012EC0001029A619A6902F001020092009ADA698D
:1012FC0042F08052DA61DB69074A03F080530193B4
:10130C00019B536823F0E06343F00073536002B019
:10131C00704700BF0010024000000140F0B51027DC
:10132C00064687B03A46002102A800F0F7F832686A
:10133C002E4B9A4257D103F558439A6902A942F4AD
:10134C0080429A619A692A4802F480420092009A7B
:10135C009A69002542F004029A619B69254C03F0BE
:10136C0004030193019B4FF4007302930223039334
:10137C0003230593FFF7E0F84FF480631C4802A9A0
:10138C00029303950495FFF7D7F81B4B204684E88E
:10139C0088008023A560E36025616561A561E56136
:1013AC00FEF780FF08B1FFF795FF144B34636662BC
:1013BC00134C80222360002320466360A360E2600C
:1013CC0023616361A361E361FEF76CFF08B1FFF772
:1013DC0081FF00222520746311466662FEF70AFF26
:1013EC002520FEF73BFF07B0F0BD00BF00380140E1
:1013FC000008014048000020440002405800024010
:10140C00980000207047FEE7FEE7FEE7FEE7704716
:10141C0070477047FEF7CABE0148FEF7F9BF00BF20
:10142C00480000200148FEF7F3BF00BF98000020E1
:10143C000148FFF75DBD00BFE00000200F4B1A68AC
:10144C0042F001021A6059680D4A0A405A601A6843
:10145C0022F0847222F480321A601A6822F48022FC
:10146C001A605A6822F4FE025A604FF41F029A6006
:10147C004FF00062034B9A60704700BF00100240AF
:10148C000000FFF800ED00E0002103E00B4B5B587F
:10149C00435004310A480B4B42189A42F6D30A4A7D
:1014AC0002E0002342F8043B084B9A42F9D3FFF7C1
:1014BC00C5FF00F00FF8FFF743FE704780150008DA
:1014CC000000002024000020240000202401002023
:1014DC00FEE7000070B500250C4E0D4CA41BA410AB
:1014EC00A54209D100F022F800250A4E0A4CA41B93
:1014FC00A410A54205D170BD56F82530984701358A
:10150C00EEE756F8253098470135F2E778150008D4
:10151C0078150008781500087C150008034602446D
:10152C00934200D1704703F8011BF9E7F8B500BFEF
:10153C00F8BC08BC9E467047F8B500BFF8BC08BCA8
:04154C009E46704700
:1015500002030405060708090A0B0C0D0E0F1010F4
:101560000000000000000000010203040607080953
:08157000000000000102030469
:041578003101000835
:04157C000D01000855
:101580000100000010000000747820627566666536
:10159000722069732063726F776465640A0D0000BE
:0415A0000024F4002F
:040000050800149546
:00000001FF
