:020000040800F2
:10000000005000203D1C0008911B0008931B0008B5
:10001000951B0008971B0008991B000800000000B2
:100020000000000000000000000000009B1B000812
:100030009D1B0008000000009F1B0008A11B00087A
:10004000851C0008851C0008851C0008851C00080C
:10005000851C0008851C0008851C0008851C0008FC
:10006000851C0008851C0008851C0008851C0008EC
:10007000851C0008851C0008A51B0008851C0008BD
:10008000851C0008851C0008851C0008851C0008CC
:10009000851C0008851C0008851C0008851C0008BC
:1000A000851C0008851C0008851C0008851C0008AC
:1000B000851C0008851C0008851C0008851C00089C
:1000C000851C0008851C0008851C0008851C00088C
:1000D000851C0008B11B0008851C0008851C000851
:1000E000851C0008851C0008851C00080000000015
:1000F0000000000000000000000000000000000000
:0C01000000000000000000005FF808F1A3
:1001100010B5054C237833B9044B13B10448AFF341
:1001200000800123237010BD0002002000000000A9
:100130005037000808B5034B1BB103490348AFF320
:10014000008008BD000000000402002050370008B5
:10015000034613F8012B002AFBD1181A0138704707
:1001600081F0004102E000BF83F0004330B54FEA68
:1001700041044FEA430594EA050F08BF90EA020FD5
:100180001FBF54EA000C55EA020C7FEA645C7FEA68
:10019000655C00F0E2804FEA5454D4EB5555B8BF8B
:1001A0006D420CDD2C4480EA020281EA030382EAFC
:1001B000000083EA010180EA020281EA0303362D8E
:1001C00088BF30BD11F0004F4FEA01314FF4801C61
:1001D0004CEA113102D0404261EB410113F0004F73
:1001E0004FEA03334CEA133302D0524263EB43032A
:1001F00094EA050F00F0A780A4F10104D5F1200EC8
:100200000DDB02FA0EFC22FA05F2801841F1000122
:1002100003FA0EF2801843FA05F359410EE0A5F1F6
:1002200020050EF1200E012A03FA0EFC28BF4CF027
:10023000020C43FA05F3C01851EBE37101F00045DD
:1002400007D54FF0000EDCF1000C7EEB00006EEBEA
:100250000101B1F5801F1BD3B1F5001F0CD3490874
:100260005FEA30004FEA3C0C04F101044FEA4452CB
:1002700012F5800F80F09A80BCF1004F08BF5FEA52
:10028000500C50F1000041EB045141EA050130BD32
:100290005FEA4C0C404141EB010111F4801FA4F1D5
:1002A0000104E9D191F0000F04BF01460020B1FA2A
:1002B00081F308BF2033A3F10B03B3F120020CDA62
:1002C0000C3208DD02F1140CC2F10C0201FA0CF040
:1002D00021FA02F10CE002F11402D8BFC2F1200CA5
:1002E00001FA02F120FA0CFCDCBF41EA0C0190405B
:1002F000E41AA2BF01EB0451294330BD6FEA0404A4
:100300001F3C1CDA0C340EDC04F11404C4F120028E
:1003100020FA04F001FA02F340EA030021FA04F3A0
:1003200045EA030130BDC4F10C04C4F1200220FAF7
:1003300002F001FA04F340EA0300294630BD21FA35
:1003400004F0294630BD94F0000F83F4801306BFFB
:1003500081F480110134013D4EE77FEA645C18BFEF
:100360007FEA655C29D094EA050F08BF90EA020F86
:1003700005D054EA000C04BF1946104630BD91EA7E
:10038000030F1EBF0021002030BD5FEA545C05D181
:100390004000494128BF41F0004130BD14F58004C0
:1003A0003CBF01F5801130BD01F0004545F0FE4134
:1003B00041F470014FF0000030BD7FEA645C1ABF69
:1003C000194610467FEA655C1CBF0B46024650EAA0
:1003D000013406BF52EA033591EA030F41F40021CC
:1003E00030BD00BF90F0000F04BF0021704730B552
:1003F0004FF4806404F132044FF000054FF0000127
:1004000050E700BF90F0000F04BF0021704730B5E7
:100410004FF4806404F1320410F0004548BF4042BC
:100420004FF000013EE700BF42004FEAE2014FEA11
:1004300031014FEA02701FBF12F07F4393F07F4FEC
:1004400081F06051704792F0000F14BF93F07F4F1E
:10045000704730B54FF4607401F0004521F0004161
:1004600020E700BF50EA010208BF704730B54FF0E7
:1004700000050AE050EA010208BF704730B511F0EC
:10048000004502D5404261EB41014FF4806404F124
:1004900032045FEA915C3FF4DCAE4FF003025FEAA6
:1004A000DC0C18BF03325FEADC0C18BF033202EB2E
:1004B000DC02C2F1200300FA03FC20FA02F001FA88
:1004C00003FE40EA0E0021FA02F11444C1E600BF27
:1004D00070B54FF0FF0C4CF4E06C1CEA11541DBFDA
:1004E0001CEA135594EA0C0F95EA0C0F00F0DEF8A5
:1004F0002C4481EA030621EA4C5123EA4C5350EA8A
:10050000013518BF52EA033541F4801143F48013DA
:1005100038D0A0FB02CE4FF00005E1FB02E506F06B
:100520000042E0FB03E54FF00006E1FB03569CF0C0
:10053000000F18BF4EF0010EA4F1FF04B6F5007FC6
:1005400064F5407404D25FEA4E0E6D4146EB060638
:1005500042EAC62141EA55514FEAC52040EA5E50C1
:100560004FEACE2EB4F1FD0C88BFBCF5E06F1ED86B
:10057000BEF1004F08BF5FEA500E50F1000041EBA2
:10058000045170BD06F0004646EA010140EA02004F
:1005900081EA0301B4EB5C04C2BFD4EB0C0541EA71
:1005A000045170BD41F480114FF0000E013C00F386
:1005B000AB8014F1360FDEBF002001F0004170BDAA
:1005C000C4F10004203C35DA0C341BDC04F11404C3
:1005D000C4F1200500FA05F320FA04F001FA05F24F
:1005E00040EA020001F0004221F0004110EBD3701C
:1005F00021FA04F642EB06015EEA430E08BF20EA48
:10060000D37070BDC4F10C04C4F1200500FA04F3EA
:1006100020FA05F001FA04F240EA020001F000417C
:1006200010EBD37041F100015EEA430E08BF20EAEF
:10063000D37070BDC4F1200500FA05F24EEA020E37
:1006400020FA04F301FA05F243EA020321FA04F066
:1006500001F0004121FA04F220EA020000EBD3701D
:100660005EEA430E08BF20EAD37070BD94F0000F1D
:100670000FD101F00046400041EB010111F4801F51
:1006800008BF013CF7D041EA060195F0000F18BF02
:10069000704703F00046520043EB030313F4801F3E
:1006A00008BF013DF7D043EA0603704794EA0C0FF8
:1006B0000CEA135518BF95EA0C0F0CD050EA41060E
:1006C00018BF52EA4306D1D181EA030101F000418B
:1006D0004FF0000070BD50EA410606BF10461946B3
:1006E00052EA430619D094EA0C0F02D150EA0136BF
:1006F00013D195EA0C0F05D152EA03361CBF104600
:1007000019460AD181EA030101F0004141F0FE419E
:1007100041F470014FF0000070BD41F0FE4141F422
:10072000780170BD70B54FF0FF0C4CF4E06C1CEA22
:1007300011541DBF1CEA135594EA0C0F95EA0C0FD7
:1007400000F0A7F8A4EB050481EA030E52EA033592
:100750004FEA013100F088804FEA03334FF08055B3
:1007600045EA131343EA12634FEA022245EA1115E0
:1007700045EA10654FEA00260EF000419D4208BF91
:10078000964244F1FD0404F5407402D25B084FEA3E
:100790003202B61A65EB03055B084FEA32024FF4EA
:1007A00080104FF4002CB6EB020E75EB030E22BF47
:1007B000B61A754640EA0C005B084FEA3202B6EB07
:1007C000020E75EB030E22BFB61A754640EA5C00B6
:1007D0005B084FEA3202B6EB020E75EB030E22BF46
:1007E000B61A754640EA9C005B084FEA3202B6EB47
:1007F000020E75EB030E22BFB61A754640EADC0006
:1008000055EA060E18D04FEA051545EA16754FEA67
:1008100006164FEAC30343EA52734FEAC2025FEA85
:100820001C1CC0D111F4801F0BD141EA00014FF014
:1008300000004FF0004CB6E711F4801F04BF0143E5
:100840000020B4F1FD0C88BFBCF5E06F3FF6AFAE01
:10085000B5EB030C04BFB6EB020C5FEA500C50F191
:10086000000041EB045170BD0EF0004E4EEA113114
:1008700014EB5C04C2BFD4EB0C0541EA045170BD1B
:1008800041F480114FF0000E013C90E645EA060E5F
:100890008DE60CEA135594EA0C0F08BF95EA0C0F8D
:1008A0003FF43BAF94EA0C0F0AD150EA01347FF4D5
:1008B00034AF95EA0C0F7FF425AF104619462CE7AC
:1008C00095EA0C0F06D152EA03353FF4FDAE10460F
:1008D000194622E750EA410618BF52EA43067FF460
:1008E000C5AE50EA41047FF40DAF52EA43057FF4F0
:1008F000EBAE12E74FF0FF3C06E000BF4FF0010CFB
:1009000002E000BF4FF0010C4DF804CD4FEA410C5E
:100910007FEA6C5C4FEA430C18BF7FEA6C5C1BD02B
:1009200001B050EA410C0CBF52EA430C91EA030FAC
:1009300002BF90EA020F0020704710F1000F91EA09
:10094000030F58BF994208BF90422CBFD8176FEAD7
:10095000E37040F0010070474FEA410C7FEA6C5CA5
:1009600002D150EA013C07D14FEA430C7FEA6C5CAC
:10097000D6D152EA033CD3D05DF8040B704700BFD8
:100980008446104662468C461946634600E000BF26
:1009900001B5FFF7B7FF002848BF10F1000F01BDF8
:1009A0004DF808EDFFF7F4FF0CBF012000205DF8C3
:1009B00008FB00BF4DF808EDFFF7EAFF34BF012048
:1009C00000205DF808FB00BF4DF808EDFFF7E0FFE1
:1009D00094BF012000205DF808FB00BF4DF808ED32
:1009E000FFF7CEFF94BF012000205DF808FB00BF99
:1009F0004DF808EDFFF7C4FF34BF012000205DF87B
:100A000008FB00BF4FEA410C7FEA6C5C02D150EA60
:100A1000013C0AD14FEA430C7FEA6C5C02D152EAF6
:100A2000033C02D14FF0000070474FF001007047C7
:100A30004FEA410212F5001215D211D56FF4787306
:100A4000B3EB625212D94FEAC12343F0004343EAA9
:100A5000505311F0004F23FA02F018BF4042704784
:100A60004FF00000704750EA013005D111F000400E
:100A700008BF6FF0004070474FF00000704700BFA4
:100A800038B50E4B054618784FF47A73B3FBF0F384
:100A90000B4A1068B0FBF3F000F08EF8044658B92A
:100AA0000F2D09D8024629464FF0FF3000F042F8DA
:100AB000044B20461D6038BD012038BD00000020D9
:100AC0002C00002004000020074A08B5136803200A
:100AD00043F01003136000F01BF80020FFF7D0FF75
:100AE00000F0D8FF002008BD00200240034A044B5C
:100AF00011681B780B441360704700BF2802002068
:100B000000000020014B1868704700BF2802002039
:100B1000074A0002D36800F4E06023F4E0631B049A
:100B20001B0C43F0BF6343F400330343D3607047AF
:100B300000ED00E0174B30B5DC68C4F30224C4F1CB
:100B40000703251D042B28BF0423062D4FF00105A4
:100B500098BF002405FA03F303F1FF3388BF033C79
:100B60001940A14005FA04F4013C2240002842EA61
:100B700001024FEA0212A9BF00F16040064BD2B257
:100B800000F56140BBBF00F00F00D2B280F8002337
:100B90001A5430BD00ED00E014ED00E0002808DB41
:100BA0000123420900F01F0003FA00F0014B43F853
:100BB0002200704700E100E00138B0F1807F0AD2E6
:100BC000F021064B064A586082F8231000200722C5
:100BD00098601A6070470120704700BF10E000E085
:100BE00000ED00E010B530B314220168134B8468A7
:100BF0000B44B3FBF2F39B000364114B0A68C3631D
:100C0000436822F47F522343C46822F03002234316
:100C1000046923434469234384692343C469234308
:100C200013430B600122002380F82120836380F8A6
:100C30002030184610BD012010BD00BFF8FFFDBFD9
:100C400000000240F0B590F82040012C35D001247E
:100C500090F8215080F82040A5424FF000064FF058
:100C6000020428D180F82140046886632668076C56
:100C700026F001062660C66BBD4075606360436860
:100C80000568102BC36A0BBFA260A160E160E2603F
:100C90004BB1236843F00E0323602B68002043F020
:100CA00001032B60F0BD236823F004032360236855
:100CB00043F00A03F0E780F820600220F0BD000056
:100CC00090F8213010B5022B03D004238363012058
:100CD00010BD03681A6822F00E021A601A6822F02A
:100CE00001021A60184A93421FD0143293421ED058
:100CF000143293421DD0143293421DD014329342C9
:100D00001DD0143293420CBF4FF480134FF0807308
:100D10000E4A00245360012380F82130436B80F891
:100D200020407BB19847204610BD0123F0E71023F7
:100D3000EEE74FF48073EBE74FF48053E8E74FF4AE
:100D40008033E5E7184610BD08000240000002406D
:100D500070B40425C66B026C346803689540254264
:100D6000196832D04D0730D51A6896065EBF1A68EA
:100D700022F004021A603E4A934219D01432934280
:100D800018D01432934217D01432934217D0143231
:100D9000934217D0143293420CBF4FF480034FF0AC
:100DA0008063344A5360C36A002B5ED070BC18471E
:100DB0000423F6E74023F4E74FF48063F1E74FF4B0
:100DC0008043EEE74FF48023EBE702259540254270
:100DD00035D08D0733D51A68940606D41A6822F0E8
:100DE0000A021A60012280F82120214A934219D078
:100DF0001432934218D01432934217D014329342D3
:100E000017D01432934217D0143293420CBF4FF4D0
:100E100000134FF00073174A5360002380F820300E
:100E2000836AC1E70223F6E72023F4E74FF4007357
:100E3000F1E74FF40053EEE74FF40033EBE70825FA
:100E40009540254211D009070FD5196821F00E01F0
:100E50001960012303FA02F27260836380F8213083
:100E6000002380F82030036B9EE770BC704700BF02
:100E700008000240000002402DE9F74F00242646FA
:100E8000664BDFF8A8E1DFF8A8C10A6832FA06F578
:100E900002D103B0BDE8F08F4FF0010808FA06F860
:100EA00002EA080290457FD14D68122D00F0AA8019
:100EB00000F28380022D00F0A28077D8002D00F090
:100EC0008980012D00F099804FF00F09FF2A93BF10
:100ED000824606F18045083DD0F800B092BFB500CB
:100EE000D0F804B0AD0009FA05F82BEA080804FAB6
:100EF00005F588BF00F1040A48EA0505CAF8005064
:100F0000D1F804A01AF0805F4ED0454D444FAD6932
:100F100026F0030845F00105BD61BD6908F1804870
:100F200005F00105019508F5803806F0030B019DD9
:100F30004FEA8B0BD8F8085009FA0BF925EA090992
:100F4000384DA84263D005F58065A84261D005F50B
:100F50008065A8425FD005F58065A8420CBF0325D7
:100F6000042505FA0BF545EA0905C8F808501D687F
:100F70001AF4803F14BF154395431D605D681AF451
:100F8000003F14BF154395435D609D681AF4801FB0
:100F900014BF154395439D60DD681AF4001F14BF0C
:100FA0002A4325EA0202DA6001366EE7032D22D0D9
:100FB000112D89D1CC68043486E71B4FBD4209D07E
:100FC00012D8DFF870904D4504D009F580394D45B1
:100FD0007FF47AAF8C68C4B1012C0CBFC0F81080CC
:100FE000C0F8148008246FE77545F3D06545F1D04B
:100FF000DFF84490EBE7002466E7CC6864E7CC6850
:10100000083461E7CC680C345EE704245CE7002513
:10101000A7E70125A5E70225A3E700BF00040140DB
:1010200000100240000801400000211000003110B3
:101030000000321000001110000022102DE9F341D1
:10104000054608B901203CE00368DB0710D42B6893
:101050009F075DD42B68190700F194802B685A070D
:1010600000F1BE80E869002840F02C81002028E0D3
:101070008F4C636803F00C03042B07D0636803F004
:101080000C03082B09D16368DE0306D523689C0393
:10109000DDD56B68002BDAD1D4E76B68B3F5803F00
:1010A00012D1236843F480332360FFF72BFD0646FB
:1010B00023689803CBD4FFF725FD801B6428F7D95C
:1010C000032002B0BDE8F0819BB9236823F480338C
:1010D0002360236823F480232360FFF713FD064673
:1010E00023689903B3D5FFF70DFD801B6428F7D95A
:1010F000E6E7B3F5A02F236803D143F480232360F0
:10110000CFE723F480332360236823F48023CBE7E5
:10111000674C636813F00C0F07D0636803F00C038F
:10112000082B10D16368DA030DD423689B0702D51E
:101130002B69012B86D123686A6923F0F80343EAFF
:10114000C203236086E72A695A4B6AB101221A60FA
:10115000FFF7D8FC064623689F07ECD4FFF7D2FCC4
:10116000801B0228F7D9ABE71A60FFF7CBFC0646D5
:10117000236898077FF56EAFFFF7C4FC801B022839
:10118000F6D99DE7AA694A4C4B4BDAB101221A60A5
:10119000FFF7B8FC0646636A9B070DD54FF4FA5279
:1011A000464B1B68B3FBF2F3019300BF019B5A1E31
:1011B0000192002BF9D151E7FFF7A4FC801B022814
:1011C000E9D97DE71A60FFF79DFC0646636A9F0731
:1011D0007FF544AFFFF796FC801B0228F6D96FE736
:1011E000334CE369D80024D40127E36943F08053EA
:1011F000E361E36903F080530093009B304E336852
:10120000D90518D5EB68012B26D1236A43F00103D9
:101210002362FFF777FC41F288368046236A9B07FA
:101220003FD5002F3FF41EAFE36923F08053E36105
:1012300018E70027E2E7336843F480733360FFF771
:1012400061FC80463368DA05DCD4FFF75BFCA0EB79
:1012500008006428F6D933E7ABB9236A41F288382D
:1012600023F001032362236A23F004032362FFF7C0
:1012700049FC0646236A9807D3D5FFF743FC801B39
:101280004045F7D91CE7052B236A03D143F004033B
:101290002362BAE723F001032362236A23F00403E5
:1012A000B6E7FFF72FFCA0EB0800B042B6D907E77E
:1012B0000010024000004242800442422C00002004
:1012C000007000402A4B5A681C4602F00C02082AA3
:1012D0003DD00023274E022833602BD1FFF712FCAC
:1012E0000746236899011FD42B6AB3F5803F05D1C7
:1012F0006268A96822F400320A436260696A62681F
:101300000B4322F474121343636001233360FFF72D
:10131000F9FB054623689A013FF5A8AEFFF7F2FBFB
:10132000401B0228F6D9CBE6FFF7ECFBC01B0228D6
:10133000D7D9C5E6FFF7E6FB054623689B017FF595
:1013400095AEFFF7DFFB401B0228F6D9B8E601286F
:101350003FF4B7AE58682B6A00F480329A427FF4AB
:1013600071AE6B6A00F47010C01A18BF0120A8E6B5
:10137000001002406000424230B5194B87B002AC09
:1013800003F11005224618685968083303C2AB42BE
:101390001446F7D101238DF80430022311498DF84A
:1013A00005304B6803F00C02082A17D1C3F38342BF
:1013B00006A80244DB0312F8102C0CD54B680A482F
:1013C000C3F34043504306AA134413F8143CB0FB44
:1013D000F3F007B030BD05485043FAE70248F8E79C
:1013E000683700080010024000127A0000093D0032
:1013F0002DE9F0410D46044610B90120BDE8F08109
:10140000454A136803F007038B4229D321688E07EE
:1014100031D4CA0744D4404A136803F007039D42FD
:1014200067D322683D4D12F0040F6ED1130706D525
:101430006B68226923F4605343EAC2036B60FFF7D1
:101440009BFF6B68364AC3F30313D35CD840354B1C
:101450001860354B1868FFF713FB0020BDE8F081DA
:10146000136823F007030B431360136803F00703AB
:101470009942C2D1CAE7294B11F0040F1EBF5A6826
:1014800042F4E0625A60080742BF5A6842F4605270
:101490005A605A68A06822F0F00202435A60B8E726
:1014A00062681E4E012A33681BD113F4003FA4D09A
:1014B000736841F2883823F0030313437360FFF726
:1014C00021FB07467368626803F00C03B3EB820FDD
:1014D000A1D0FFF717FBC01B4045F3D90320BDE89F
:1014E000F081022A02D113F0007FE0E713F0020F2F
:1014F000DDE7136823F007032B431360136803F041
:1015000007039D427FF479AF8BE76B68E16823F4B2
:10151000E0630B436B6089E700200240001002404B
:10152000783700082C00002004000020044B054AF6
:101530005B68C3F30223D35C034A1068D84070474A
:1015400000100240883700082C000020044B054A98
:101550005B68C3F3C223D35C034A1068D84070476A
:1015600000100240883700082C0000200368DA6869
:1015700022F49072DA605A6922F001025A61202343
:1015800080F83A307047000038B505460368C168F6
:101590001A69192422F440520A431A6182680069C8
:1015A000D9680243686921F4B05121F00C0102436B
:1015B0000A43DA605A69A96922F440720A435A61FF
:1015C0000D4A934214D1FFF7C1FF60436C68642257
:1015D000A400B0FBF4F0B0FBF2F402FB14031B0117
:1015E0003233B3FBF2F3296803EB04138B6038BD8D
:1015F000FFF79CFFE9E700BF0038014010B5044643
:1016000040B390F8393003F0FF021BB980F838205E
:1016100000F062FA2423226884F83930D368204627
:1016200023F40053D360FFF7AFFF236800201A694B
:1016300022F490421A615A6922F02A025A61DA6849
:1016400042F40052DA602023E06384F8393084F8F1
:101650003A3010BD012010BD38B50446134694F849
:101660003920202A2AD139B333B394F83820012AFB
:1016700024D00122002584F838202122E384206B25
:10168000E56384F839200E4AA384216282620D4A00
:101690004563C2620C4A026322680432FFF7D2FA41
:1016A0006FF04002236828461A605A6984F838505F
:1016B00042F080025A6138BD012038BD022038BD99
:1016C000CF160008FD16000887170008704708B5F8
:1016D0000368426A1B6813F020030AD1D38413689D
:1016E0005A6922F080025A61DA6842F04002DA60F8
:1016F00008BD1046FFF7EAFF08BD704708B5406A0D
:10170000FFF7FBFF08BD704790F83A3010B5222B69
:1017100036D183680169B3F5805F0268836A23D19B
:101720005268E9B9C2F3080223F8022B8362C48D20
:10173000013CA4B2C4858CB90368DA6822F02002A7
:10174000DA60DA6822F48072DA605A6922F0010203
:101750005A61202380F83A30FFF7D5FF002010BDF2
:10176000D2B223F8012BE1E721B9591C52688162FA
:101770001A70DCE75268591C816202F07F02F7E7B9
:10178000022010BD7047416A08B50B685A6991F88C
:10179000390021280AD1120608D50022CA84DA6845
:1017A00022F0C002DA60202281F839205B6991F8CA
:1017B0003A20222A06D15B0604D500230846CB85B1
:1017C000FFF7D4FECB6B084643F01003CB63FFF763
:1017D000D9FF08BD036870B51A6804461607D968B2
:1017E0005D6907D196065AD58D0658D5BDE870407B
:1017F000FFF78ABF15F0010502D111F4907F4ED09A
:10180000D30705D5CE0542BFE36B43F00103E36385
:10181000500704D51DB1E36B43F00203E363930764
:1018200004D51DB1E36B43F00403E363160704D54D
:101830001DB1E36B43F00803E363E36B002B66D059
:10184000950604D5880602D52046FFF75DFF23687C
:1018500020465D69E26B110702D415F040051AD0ED
:10186000FFF784FE23685A69520610D55A69606BE7
:1018700022F040025A6150B1254B4363FFF720FA32
:10188000002844D0606BBDE87040436B1847204689
:10189000FFF778FF70BDFFF775FFE56370BD1606B3
:1018A00027D50D0625D594F83920212A2FD1A268F5
:1018B000B2F5805F226A17D11188C1F3080159601F
:1018C000216979B902322262E28C013A92B2E28451
:1018D000EAB9DA6822F08002DA60DA6842F040029F
:1018E000DA6070BD0132EEE7511C216212785A6055
:1018F000EAE750060BD54A0609D5DA68204622F0F9
:101900004002DA60202384F83930FFF7DFFE70BD33
:101910001519000808B50023406AC385C384FFF782
:1019200031FF08BD10B590B02822002106A800F0B4
:10193000D5F90021142201A800F0D0F94FF480332A
:101940000122022407930E934FF4E01306A8069297
:101950000A920F930D94FFF771FB0F234FF48062EF
:1019600001930023214601A8029403930492059356
:10197000FFF73EFD10B010BD8FB5FFF7A5F8FFF7DC
:10198000D1FF3C4B0E209A693B4C42F020029A61F9
:101990009A69274602F020020292029A9A69374E0B
:1019A00042F004029A619A69354D02F004020392F2
:1019B000039A5A69DFF8D08042F001025A6100228E
:1019C0005B69114603F001030193019BFFF7B2F835
:1019D0000E20FFF7E3F84FF4E1332A480C2284E8A5
:1019E000090000232046A360E3602361A361E36153
:1019F0006261FFF703FEFFF785F80123DFF88C90A3
:101A000030602B70FFF77EF83368C01AB0F57A7F2C
:101A100021D82B78FF2B1ED0FFF774F82B7830607D
:101A2000012B0BD194F83930212BEBD016224946EB
:101A30003846FFF711FE02232B70E3E7022BE1D1BA
:101A400094F83930212BDDD00D2241463846FFF77E
:101A500003FEFF23F0E7FFF755F83368C01AB0F52F
:101A60007A7FCFD32B78FF2BCCD1FFF74BF8012314
:101A70003060E1E700100240B80200207002002050
:101A80002C020020003801401E0000200800002029
:101A9000704700000E4B82B09A6942F001029A61D1
:101AA0009A6902F001020092009ADA6942F08052CB
:101AB000DA61DB69074A03F080530193019B5368A5
:101AC00023F0E06343F00073536002B0704700BF3F
:101AD0000010024000000140F0B51027064687B014
:101AE0003A46002102A800F0F9F83268244B9A42E5
:101AF00043D103F558439A6902A942F480429A619E
:101B00009A69204802F480420092009A9A6900255E
:101B100042F004029A619B691B4C03F00403019399
:101B2000019B4FF400730293022303930323059355
:101B3000FFF7A2F94FF48063124802A902930395BC
:101B40000495FFF799F9114B204684E8880080231B
:101B5000A560E36025616561A561E561FFF742F875
:101B600008B1FFF795FF0022252034631146666215
:101B7000FEF7E0FF2520FFF711F807B0F0BD00BF2A
:101B80000038014000080140740200204400024077
:101B90007047FEE7FEE7FEE7FEE7704770477047D5
:101BA000FEF7A4BF0148FFF7D3B800BF74020020BE
:101BB0000148FFF70FBE00BFB802002008B50A4B6E
:101BC0000246196809B9094919606946186802444A
:101BD0008A4206D900F058F80C2303604FF0FF301A
:101BE00008BD1A6008BD00BF1C020020FC020020D6
:101BF0000F4B1A6842F001021A6059680D4A0A40F8
:101C00005A601A6822F0847222F480321A601A68CC
:101C100022F480221A605A6822F4FE025A604FF4BD
:101C20001F029A604FF00062034B9A60704700BF3A
:101C3000001002400000FFF800ED00E0002103E08A
:101C40000B4B5B58435004310A480B4B42189A42E5
:101C5000F6D30A4A02E0002342F8043B084B9A42BA
:101C6000F9D3FFF7C5FF00F015F8FFF785FE7047C1
:101C7000C0390008000000200002002000020020FF
:101C8000FC020020FEE70000014B1868704700BF0F
:101C90003000002070B500250C4E0D4CA41BA41084
:101CA000A54209D101F054FD00250A4E0A4CA41B9F
:101CB000A410A54205D170BD56F8253098470135CE
:101CC000EEE756F8253098470135F2E7B8390008B5
:101CD000B8390008B8390008BC3900080346024486
:101CE000934200D1704703F8011BF9E7002B2DE95F
:101CF000F0471E46BBBF03F100431E4600232D23C1
:101D000088B0149F129927F02007462F1446109D83
:101D1000DDF84CA00B7004D0452F00D10135022313
:101D200000E0032307AA049206AA03928DE8280480
:101D30002246334600F0A8FB472F804602D1119B74
:101D4000DB0726D5462F08EB050911D198F800309E
:101D5000302B0AD10022002320463146FEF720FE18
:101D600018B9C5F10105CAF80050DAF800309944F5
:101D70000022002320463146FEF712FE38B93022F9
:101D8000079B994505D9591C07911A70F8E7CDF8BA
:101D90001C904046079B159AA3EB0803136008B0FC
:101DA000BDE8F0870346F7B5002903F8022BB6BF5C
:101DB0002D222B2249420929427021DD0DF1070213
:101DC00017460A2691FBF6F506FB1511092D01F1C0
:101DD000300102F8011C02F1FF34294609DC3031E0
:101DE000023A04F8011CBA421C4604D3201A03B07C
:101DF000F0BD2246E6E712F8011B03F8011BF2E7EB
:101E000030221C46114404F8022B5970EEE7000002
:101E10002DE9F04F91B00C461A9F93461E46054699
:101E200001F006F9036818460993FEF791F90023BB
:101E30000E933B680A90073323F0070303F108026F
:101E400094F81880D4F800A03A60D3E90023C4E9DC
:101E50001223D4F84C90A76C29F000430B934FF059
:101E6000FF32A64B38460B99FEF7CCFD002840F018
:101E7000F7814FF0FF32A14B38460B99FEF7A4FDD6
:101E8000002840F0ED810022002338464946FEF745
:101E900091FD10B12D2384F84330994B994FB8F13F
:101EA000470F98BF1F4603234FF0000923612AF014
:101EB0000403236000965B460FAA2146284600F0E3
:101EC000DFF9013040F09A804FF0FF3011B0BDE8EB
:101ED000F08F62680EA8531C0DF1340E4AF4806333
:101EE00041D10622626000212360019363680DF1F5
:101EF00033020590029200933A464B460691CDF884
:101F00001080CDF80CE02846FFF7F0FE08F0DF0364
:101F1000472B074609D10D9BD81C02DB6268934210
:101F200059DDA8F102085FFA88F8B8F1650F0D993C
:101F300036D80139424604F150000D91FFF732FFC7
:101F40000E9A81468318012A236102DC2268D10798
:101F500001D5013323619DF83330002BAAD02D2306
:101F600084F84330A6E7B8F1670F02D0B8F1470F05
:101F7000B9D19AB1002106910DF133018DE80C0021
:101F8000236005903A46CDF81080CDF80CE0029120
:101F90004B462846FFF7AAFE0746BCE70122A1E709
:101FA000B8F1660F19D1002963680CDD216113B9FE
:101FB0002268D20702D501330B4423610D9B4FF0F9
:101FC0000009A365C7E713B92268D00701D502331A
:101FD000F3E70123F1E74FF067080D9B0E9A934258
:101FE00005DB22682361D107E8D50133E5E7002B43
:101FF000CCBF0123C3F102031344DEE723685A0573
:1020000007D423693A4659462846B04701302AD1B9
:102010005AE7B8F1650F40F2DC80D4E912010022E2
:102020000023FEF7BDFC002839D00123364A59466B
:102030002846B04701303FF447AF0E9B0D9A9A42B5
:1020400002DB2368D8070ED50A9B099A5946284611
:10205000B04701303FF438AF002704F11A080E9B57
:10206000013B9F4211DB23689F0708D5002704F13D
:102070001908E3680F9A9B1A9F42C0F2E780E06854
:102080000F9B9842B8BF184620E7012342465946A5
:102090002846B04701303FF417AF0137DFE70D9B0B
:1020A000002B33DC0123184A59462846B04701303B
:1020B0003FF40AAF0D9B23B90E9B13B92368D907D0
:1020C000D1D50A9B099A59462846B04701303FF4BA
:1020D000FBAE4FF0000804F11A090D9B5B429845D6
:1020E00001DB0E9B8EE701234A4659462846B0473E
:1020F00001303FF4E9AE08F10108EEE7FFFFEF7FA2
:102100009037000894370008A03700080E9AA36D96
:102110009A42A8BF1A46002A904636DC4FF0000AC1
:1021200004F11A0328EAE8780B93D4F85890A9EB45
:1021300008039A4531DB0E9B0D9A9A4238DB2368DF
:10214000DA0735D40E9B0D99A3EB0902A3EB010826
:102150009045A8BF9046B8F1000F31DC002728EA6F
:10216000E87804F11A090D9A0E9B9B1AA3EB080359
:102170009F42BFF678AF01234A4659462846B047EA
:1021800001303FF4A1AE0137EDE7134659463A4618
:102190002846B0470130C1D196E601230B9A594633
:1021A0002846B04701303FF48FAE0AF1010ABCE780
:1021B0000A9B099A59462846B0470130C2D183E6A6
:1021C000434607EB090259462846B0470130C5D1BE
:1021D0007AE60E9A012A01DCDB0734D501233A4660
:1021E00059462846B04701303FF46EAE0A9B099A23
:1021F00059462846B04701303FF466AED4E9120193
:1022000000220023FEF7CCFB50B1002704F11A088E
:102210000E9B013B9F420CDB4B4604F15002F2E661
:102220000E9B7A1C013B59462846B0470130F3D13A
:102230004AE60123424659462846B04701303FF45A
:1022400043AE0137E4E701233A46ECE70123424677
:1022500059462846B04701303FF436AE013708E70B
:102260003A464B4638464946FEF7CCFB00283FF439
:1022700030AE014B014F12E6983700089C3700083A
:102280002DE9F04791461F468A680B69064693423E
:10229000B8BF1346C9F8003091F843200C46DDF86A
:1022A000208012B10133C9F800302368990642BF7B
:1022B000D9F800300233C9F80030256815F006055A
:1022C00007D104F1190AE368D9F800209B1A9D424E
:1022D0002ADB94F843302268003318BF01239206AA
:1022E0002FD404F1430239463046C047013022D092
:1022F0002368E56803F00603042B18BF0025D9F80E
:1023000000204FF0000908BFAD1AA368226908BF7A
:1023100025EAE5759342C4BF9B1AED181A344D4562
:102320001BD10020BDE8F0870123524639463046D4
:10233000C047013003D14FF0FF30BDE8F0870135D1
:10234000C1E73020E11881F843005A1C94F8451089
:102350002244023382F84310C3E701232246394660
:102360003046C0470130E6D009F10109D7E72DE931
:10237000F74F03690C6980469C4200F38280013C60
:1023800001F1140700F1140657F8245056F8240000
:102390000135B0FBF5F54FEA840E06EB0E0307EBB3
:1023A0000E0901938DB34FF0000A3846B446D34668
:1023B00050F8042B93B205FB03A3120C4FEA134A07
:1023C00005FB02A29BB2ABEB0303BCF800B04FEAE3
:1023D000124A5B441FFA82FBDCF800208145CBEBFC
:1023E000124202EB23429BB243EA02434FEA224BE2
:1023F0004CF8043BDCD256F80E3033B9019B043B59
:102400009E421A4631D3C8F81040404601F039F8D0
:10241000002826DB30464FF0000E013557F8041B2C
:10242000D0F800C08BB2AEEB03031FFA8CF213445A
:102430000A0CC2EB1C4202EB23429BB243EA02436A
:10244000B9454FEA224E40F8043BE7D256F8242023
:1024500006EB84032AB9043B9E421A460BD3C8F804
:102460001040284603B0BDE8F08F1268043B002AF4
:10247000C9D1013CC4E71268043B002AEFD1013CFA
:10248000EAE70020EEE700002DE9F04F466A95B03C
:102490000446219DCDE902233EB9102000F0D6FD6F
:1024A0006062466086600660C660636A196851B102
:1024B0005A68012393404A608B60204600F00DFE6D
:1024C0000022636A1A60039B002BB7BF012300231D
:1024D0002B60039BAEBF2B6023F000430393DDF81A
:1024E0000C90AB4B33EA09031BD142F20F73209AD5
:1024F0001360029B23B9C9F31300002800F0838501
:10250000229B53B9A34B21E0A34B06930833229A95
:102510001360069815B0BDE8F08F9E4B0693033309
:10252000F5E7DDE902670022002330463946FEF771
:1025300037FA804660B10123209A1360229B002B5A
:1025400000F05E85954B229A1360013B0693E0E70D
:1025500012AB019313AB009332463B46204601F089
:1025600009F8C9F30A558246002D7DD03046C7F3DD
:10257000130343F07F5141F44011A5F2FF35CDF82C
:1025800040800022864BFDF7EFFD7BA3D3E90023BB
:10259000FDF79EFF7AA3D3E90023FDF7E7FD06468A
:1025A00028460F46FDF72EFF77A3D3E90023FDF75A
:1025B0008FFF02460B4630463946FDF7D7FD0646EB
:1025C0000F46FEF735FA002283460023304639468F
:1025D000FEF7F0F958B15846FDF714FF02460B46D6
:1025E00030463946FEF7DCF908B90BF1FF3BBBF189
:1025F000160F58D8DDE902236A4901EBCB01D1E976
:102600000001FEF7F5F900284FD000230BF1FF3B46
:102610000D93129B5D1B6B1E079343BF0023C5F1F7
:10262000010807934FF00008BBF1000F3FDB079B49
:10263000CDF830B05B440793002308931E9B092B11
:1026400000F2B480052BC4BF043B1E931E9BC8BF81
:102650000026A3F10203D8BF0126032B00F2B280AB
:10266000DFE803F084862D78139B129D1D4405F24C
:102670003243202B11DD029A05F21240C3F14003D0
:1026800022FA00F009FA03F31843FDF7ABFE012329
:10269000A1F1F871013D109373E7C3F12000029B93
:1026A00003FA00F0F1E70123B2E70D90B1E7CBF1B7
:1026B000000308930023A8EB0B080C93BEE701234B
:1026C00009931F9B002B40F38080994604930022BE
:1026D0000421656A6A6001F114029A427AD9696834
:1026E000204600F0C6FC636A28601B68B9F10E0F33
:1026F000069300F2F080002E00F0ED80DDE9022369
:10270000BBF1000FCDE90E2379DD264A0BF00F0354
:102710004FEA2B1602EBC303F006D3E90023CDE901
:102720000A235CD5DDE90E011F4B0325D3E90823FD
:10273000FDF7F8FFCDE9020106F00F061A4F002E53
:102740004FD1DDE90A23DDE90201FDF7EBFFCDE919
:1027500002016EE0012309931F9B5B4403F1010911
:1027600004934B46012BB8BF0123B0E70023A7E732
:102770000023F0E7AFF3008061436F63A787D23F88
:10278000B3C8608B288AC63FFB799F501344D33F60
:102790000000F07FAB370008A2370008A13700081F
:1027A0000000F83FD8370008B037000801260023A2
:1027B00009961E934FF0FF3300220493994612238B
:1027C0001F9284E701230993F4E7012304939946B8
:1027D0001A46F5E76A68490001326A607BE702251C
:1027E000ACE7F10708D5DDE90A01D7E90023FDF7D9
:1027F0006FFECDE90A010135761008379FE700F03A
:10280000A580DDE90E01CBF10006A24B06F00F0218
:1028100003EBC203D3E90023FDF75AFE0225002390
:10282000CDE902019C4F3611002E40F08480002B30
:102830008DD10D9B002B00F08B80DDE90223CDE9CB
:102840000A23DDE90A010022944BFEF7B3F80028C1
:102850007ED0B9F1000F7BD0049B002B37DDDDE982
:102860000A0100228E4BFDF733FECDE90201049EE2
:102870000BF1FF3701352846FDF7C4FDDDE90223E2
:10288000FDF726FE874B0022FDF770FCCDE90A011B
:102890000B9BA3F150750B95002E5CD1DDE9020175
:1028A0000022814BFDF760FC0A9A2B46CDE902011C
:1028B000FEF79EF8002840F0F782DDE902010A9A4F
:1028C00005F10043FEF776F8002840F0EB82DDE9E1
:1028D0000E23CDE90223139B002BC0F25081BBF1E4
:1028E0000E0F00F34C816B4B03EBCB03D3E90023BA
:1028F000CDE904231F9B002B80F2DA80B9F1000F91
:1029000000F3D68040F0CD82DDE904010022664B61
:10291000FDF7DEFDDDE90223FEF760F84E464F4687
:10292000002840F0A482069B069A5D1C31230BF11F
:10293000010B13709FE2F20705D5D7E90023FDF7DD
:10294000C7FD01230135761008376DE7022570E7D2
:102950005F464E468FE7069A4E4B32441192099AD3
:10296000711E002A48D003EBC103D3E900230020E5
:102970004E49FDF7D7FEDDE90A23FDF7F5FBCDE96A
:102980000A01069DDDE90201FEF752F80646FDF751
:1029900039FD02460B46DDE90201FDF7E5FBDDE905
:1029A0000A23303605F8016BCDE90201FEF702F883
:1029B000002864D1DDE9022300203849FDF7D4FB6B
:1029C000DDE90A23FDF7F6FF002840F0B980119BEE
:1029D0009D423FF47CAFDDE90A010022304BFDF758
:1029E00077FD0022CDE90A01DDE902012C4BFDF75C
:1029F0006FFDCDE90201C5E703EBC101D1E900019B
:102A0000DDE90A23FDF764FDCDE90A01069DDDE954
:102A10000201FEF70DF80646FDF7F4FC02460B46F0
:102A2000DDE90201FDF7A0FB3036119B05F8016BD3
:102A3000AB42CDE902014FF0000224D11B4BDDE98E
:102A40000A01FDF793FB02460B46DDE90201FDF7A3
:102A5000CFFF002874D1DDE90A2300201349FDF7D8
:102A600083FB02460B46DDE90201FDF7A3FF0028C8
:102A70003FF42DAF15F8013C6A1E302B01D0BB4648
:102A80004DE01546F6E7064BFDF722FDCDE90201C4
:102A9000BDE700BFD8370008B03700080000F03F9E
:102AA0000000244000001C40000014400000E03FF3
:102AB000069DDDE90267DDE9042330463946FDF76E
:102AC00031FEFDF7B5FF8046FDF79CFCDDE90423F0
:102AD000FDF7FEFC02460B4630463946FDF744FB47
:102AE00008F1300605F8016B069E0246AE1BB145A3
:102AF0000B4637D1FDF73AFB06460F4602460B461A
:102B0000DDE90401FDF756FFC8B9DDE904013246ED
:102B10003B46FDF745FF10B118F0010F0FD15146AC
:102B2000204600F0DAFA0023209A2B700BF1010303
:102B30001360229B002B3FF4ECAC1D60E9E45F4680
:102B400015F8012C6B1E392A06D1069A9A4207D134
:102B500030231370134601371A7801321A708EE74A
:102B60001D46EDE70022B54BFDF7B2FC0022002325
:102B700006460F46FDF714FF00289CD0CFE7099AC0
:102B8000002A00F029811E9A012A00F30E81109A72
:102B9000002A00F0068103F233434546089E079A57
:102BA00001211A4420469844079200F036FB07465C
:102BB000002D0BDD079B002B08DDAB42A8BF2B4689
:102BC000079AA8EB0308ED1AD31A0793089BFBB1E9
:102BD000099B002B00F00481002E11DD394632469E
:102BE000204600F0AFFB524601460746204600F063
:102BF0001DFB51460A90204600F06FFA0A9B9A4648
:102C0000089B9A1B04D05146204600F09BFB82464D
:102C10000121204600F001FB0C9B0646002B40F3EF
:102C2000E1801A460146204600F08CFB1E9B0646BA
:102C3000012B40F3DA8000230893336906EB83030A
:102C4000186900F09CFAC0F12000079B184410F0AE
:102C50001F0000F0F080C0F12003042B40F3E2805D
:102C6000079BC0F11C008044054403440793B8F15E
:102C7000000F05DD51464246204600F0B1FB82467A
:102C8000079B002B05DD31461A46204600F0A8FBC5
:102C900006460D9B002B00F0D3803146504600F0D5
:102CA000F0FB002880F2CC80002351460A22204607
:102CB00000F02AFA099B0BF1FF3B8246002B00F043
:102CC000A981002339460A22204600F01DFA049B00
:102CD0000746002B03DC1E9B022B00F3B980002D5E
:102CE00005DD39462A46204600F07AFB0746089B58
:102CF000002B00F010817968204600F0BAF90546F3
:102D00003A6907F10C01023292000C3000F0A6F98A
:102D100001222946204600F063FB07970746029BE5
:102D2000DDF8188003F00103089331465046FFF7A1
:102D30001EFB0799054600F13009504600F0A1FB43
:102D40003A4602903146204600F0B5FBC368024681
:102D5000002B40F0E28001460990504600F091FBC4
:102D60000346099A11462046099300F0B6F9099BDB
:102D7000002B40F0D4801E9A002A40F0D080089AA0
:102D8000002A40F0CC80B9F1390F00F0E880029BB6
:102D9000002B01DD05F1310908F1010588F80090EB
:102DA0006BE0129BC3F13603F7E6089B09F1FF368F
:102DB000B342B7BF089B9E1BF21A0C9BBFBF08967D
:102DC0009B180C930026B9F1000FB9BFA8EB0905B9
:102DD000002345464B46E2E6089E4546099FE7E646
:102DE000089A10E71E9B012B18DC029BB3B9039BCA
:102DF000C3F31303A3B9039B23F000431B0D1B056F
:102E00002BB1079B08F101080133079301230893B5
:102E10000C9B002B7FF411AF012016E70023F6E78F
:102E2000029BF4E73FF423AF079A1C331A449844FB
:102E30001D4413461AE70346F6E700BF000024408E
:102E4000B9F1000F33DC1E9B022B30DDCDF8109062
:102E5000049B63B931460522204600F055F901462E
:102E60000646504600F00DFB00283FF75CAD1F9B67
:102E7000069D6FEA030B002307933146204600F0BE
:102E80002CF9002F3FF44BAE079B2BB1BB4203D074
:102E90001946204600F021F93946204600F01DF978
:102EA0003DE600263746E2E7BB4637463BE5099B51
:102EB000CDF81090002B7FF412AF069D314650469E
:102EC000FFF755FA069B00F1300905F8019B049ABB
:102ED000EB1A9A4200F38180069B012AACBF9B1833
:102EE000013398460023079351460122204600F003
:102EF00077FA3146824600F0C4FA002834DC02D169
:102F000019F0010F30D1454615F8013C6A1E302BEF
:102F1000B3D11546F8E73846FFE6012322E7029AC7
:102F2000002A04DB28D11E9A32BB089A22BB002B50
:102F30007FF732AF51460122204600F051FA314668
:102F4000824600F09EFA002805DC7FF425AF19F0D8
:102F5000010F3FF421AFB9F1390F7FF41BAF3923D3
:102F600008F1010808F8013C454615F8013C6A1EC5
:102F7000392B3AD001333FE0002B08F1010505DD84
:102F8000B9F1390FEBD009F1010907E7069B049A63
:102F9000EB1A9342A84605F8019CA5D051460023A0
:102FA0000A22204600F0B0F8079B8246BB424FF051
:102FB0000A024FF000030799204604D100F0A4F85C
:102FC00007900746B1E600F09FF8002307900A2219
:102FD0003946204600F098F8F3E7514600230A22CC
:102FE000204600F091F8824668E7069B934205D19F
:102FF0003123069A0BF1010B13703EE71546B4E737
:10300000094BFFF7A3BA229B002B7FF47DAA074B45
:10301000FFF79CBA049B002B3FF74FAF1E9B022B80
:103020007FF74BAF14E700BFA0370008A2370008B6
:10303000044B1B68186A044B002808BF1846F03080
:10304000704700BF3000002094000020024B014672
:10305000186800F0EDBA00BF3000002010B5431E24
:103060000A44914200D110BD11F8014B03F8014F01
:10307000F7E770B5456A04460E463DB91020FFF7E4
:10308000E5FF6062456085600560C560656AEB6864
:1030900083B1636ADB6853F82600B8B9012101FAED
:1030A00006F56A1D9200204600F0B3FA60B1466052
:1030B00085600EE021220421204600F0AAFA636A0E
:1030C000E860DB68002BE4D1002070BD026843F8A3
:1030D000262000230361C36070BD70B5446A0646B4
:1030E0000D463CB91020FFF7B1FF70624460846068
:1030F0000460C4603DB1736A6A68DB6853F82210EB
:10310000296043F8225070BD2DE9F0411F46064664
:103110000C4600230D6901F1140EDEF800000133A6
:1031200081B202FB0171000C0F0C02FB007089B22E
:1031300001EB00419D424FEA10474EF8041BECDCC6
:10314000D7B1A3689D4212DB616830460131FFF7B9
:1031500090FF8046226904F10C01023292000C308B
:10316000FFF77CFF21463046FFF7B7FF444604EBEC
:10317000850301355F6125612046BDE8F081020CC1
:1031800012040346B2B90304102013F07F4F04BFAA
:103190001B02083013F0704F04BF1B01043013F002
:1031A000404F04BF9B000230002B06DB5B0003D5C1
:1031B000013070470020E8E720207047036801468F
:1031C00013F007020BD0DA0723D4980749BF5B0836
:1031D0009B0801200B605CBF0B600220704798B217
:1031E000A8B910201B0C13F0FF0F04BF1B0A0830F6
:1031F0001A0704BF1B0904309A0704BF9B0802305A
:10320000DA0702D45B0806D001300B607047104625
:10321000E9E7002070472020704710B50C460121D7
:10322000FFF727FF01224461026110BD2DE9F74F2E
:1032300014460A69236989469A42BEBF0B46A146D5
:103240001C46D9F81070D4F810A0D9F80830D9F875
:10325000041007EB0A069E42C8BF0131FFF709FFC1
:1032600000F114052B46002205EB8608434516D3D2
:1032700004F1140209F1140102EB8A0301EB870740
:103280000193019C134694420CD8002E03DD58F89C
:10329000043D002B54D0066103B0BDE8F08F43F825
:1032A000042BE3E7B3F800A00432BAF1000F20D0FA
:1032B000AE4689464FF0000C59F8044BBEF800B0FA
:1032C000A3B20AFB03B34FEA144BDEF80040634499
:1032D0004FEA144C0AFB0BC404EB13449BB243EAC1
:1032E00004434F454FEA144C4EF8043BE4D8CEF863
:1032F00000C032F8029CB9F1000F1FD0AE468C46D8
:103300004FF0000A2B68BCF80040BEF802B09BB238
:1033100009FB04B4A24443EA0A434EF8043B5CF8B8
:10332000043BBEF800401B0C09FB0343674503EB5D
:103330001A434FEA134AE6D8CEF800300435A0E726
:10334000013EA2E72DE9F843154612F003020646B6
:103350000F4607D0214C013A002354F82220FFF7F2
:10336000D3FE0746AD1035D0746A3CB91020FFF784
:103370006DFE7062446084600460C460D6F824808E
:10338000D8F808404CB940F271213046FFF745FFAC
:1033900000230446C8F8080003604FF00008EB075C
:1033A0000AD5394622463046FFF740FF8146394666
:1033B0003046FFF792FE4F466D100BD0206838B9AB
:1033C000224621463046FFF731FF2060C0F80080DA
:1033D0000446E4E73846BDE8F88300BFA03800089B
:1033E0002DE9F0470C460746164623694FEA621A54
:1033F0000AEB03094968A36809F10105AB4231DB17
:103400003846FFF736FE00228046114600F11403CD
:1034100052452ADB20692AEAEA7A04F1140116F0FF
:103420001F0203EB8A0301EB800E22D00020C2F1C1
:10343000200C0E689640304343F8040B51F8040BFF
:103440008E4520FA0CF0F4D8186008B109F1020595
:10345000013D3846C8F810502146FFF73EFE404671
:10346000BDE8F08701315B00C8E743F82210013264
:10347000CEE7043B51F8042B8E4543F8042FF9D8CE
:10348000E6E703690A6930B59B1A0CD19200143043
:1034900014318418114454F8045D51F8042D9542F8
:1034A00003D005D30123184630BDA042F3D3FAE779
:1034B0004FF0FF33F7E72DE9F0470D460746114679
:1034C00028461446FFF7DDFF061E08D13146384670
:1034D000FFF7CFFD012346610361BDE8F087A4BF7C
:1034E00023462C4638466168A6BF1D4600260126A5
:1034F000FFF7BFFD4FF0000CC6602B69266904F191
:10350000140205F1140902EB860709EB830800F1A8
:10351000140152F804AB59F8045B1FFA8AF36344B0
:10352000ACB21B1B2C0CC4EB1A4404EB23449BB21F
:103530004FEA244CC84543EA0444964641F8044BFC
:10354000E7D8BE4505D351F8043D8BB10661BDE80F
:10355000F0875EF8044BA2B26244131403EB1443E9
:1035600092B242EA03424FEA234C41F8042BE8E7C7
:10357000013EE8E72DE9F3411C4601219046089EF3
:10358000099DFFF776FDC4F31302C4F30A540746FE
:1035900034BB0192B8F1000F27D002A840F8088D83
:1035A000FFF70CFE0099F0B1019AC0F1200302FA76
:1035B00003F30B43C2407B610192019B002B14BFBC
:1035C00002210121BB613961C4B1A4F23344044436
:1035D0003460C0F135002860384602B0BDE8F081A3
:1035E00042F48012D5E77961E7E701A8FFF7E6FD2D
:1035F0000121019B39617B612030E5E7A0F2324077
:1036000007EB810330601869FFF7B9FDC0EB41108B
:10361000E1E738B502FB01F4214600F009F8054660
:1036200018B122460021FEF759FB284638BD00009C
:1036300070B5CD1C25F0030508350C2D38BF0C25C1
:10364000002D064601DBA94203D90C23336000207C
:1036500070BD00F06DF8234A1468214691B9224CE0
:1036600023681BB9304600F041F8206029463046F7
:1036700000F03CF8431C26D10C233046336000F0A8
:1036800058F8E4E70B685B1B1AD40B2B0FD90B60BF
:10369000CC18CD50304600F04CF804F10B00231D3F
:1036A00020F00700C31A1BD05A42E25070BD8C4272
:1036B0000BBF63684B681360636018BF0C46E9E793
:1036C0000C464968CAE7C41C24F00304A04205D094
:1036D000211A304600F00AF80130CDD02560D9E734
:1036E00070BD00BF200200202402002038B5002356
:1036F000054C054608462360FEF760FA431C02D1DC
:10370000236803B12B6038BDF802002082B001B9F4
:1037100001A942B14BB113780B601278101C18BF8D
:10372000012002B070471046FBE76FF00100F8E798
:103730007047704749B1FF2A8BBF8A230A70036024
:10374000012088BF4FF0FF307047084670470000E7
:10375000F8B500BFF8BC08BC9E467047F8B500BF7E
:08376000F8BC08BC9E4670474E
:1037680002030405060708090A0B0C0D0E0F1010BA
:103778000000000000000000010203040607080919
:103788000000000001020304494E4600696E66000D
:103798004E414E006E616E003000496E66696E697A
:1037A8007479004E614E00000080E03779C34143D0
:1037B800176E05B5B5B89346F5F93FE9034F384D8F
:1037C800321D30F94877825A3CBF737FDD4F15753B
:1037D800000000000000F03F00000000000024404E
:1037E80000000000000059400000000000408F4029
:1037F800000000000088C34000000000006AF84094
:103808000000000080842E4100000000D0126341B7
:103818000000000084D797410000000065CDCD412D
:10382800000000205FA00242000000E8764837420E
:10383800000000A2941A6D42000040E59C30A242AC
:103848000000901EC4BCD64200003426F56B0C4321
:103858000080E03779C3414300A0D88557347643C8
:1038680000C84E676DC1AB43003D9160E458E14329
:10387800408CB5781DAF154450EFE2D6E41A4B449E
:1038880092D54D06CFF08044F64AE1C7022DB544E3
:10389800B49DD9794378EA44050000001900000076
:1038A8007D0000004300504F534958002E0000206F
:1038B80020202020202020202828282828202020D8
:1038C8002020202020202020202020202020208888
:1038D80010101010101010101010101010101004EC
:1038E800040404040404040404101010101010103C
:1038F8004141414141410101010101010101010130
:103908000101010101010101010110101010101045
:1039180042424242424202020202020202020202FF
:10392800020202020202020202021010101020001B
:10393800000000000000000000000000000000007F
:10394800000000000000000000000000000000006F
:10395800000000000000000000000000000000005F
:10396800000000000000000000000000000000004F
:10397800000000000000000000000000000000003F
:10398800000000000000000000000000000000002F
:10399800000000000000000000000000000000001F
:1039A800000000000000000000000000000000000F
:0439B80035010008CD
:0439BC0011010008ED
:1039C0000100000010000000D09FD180D0B8D0B21C
:1039D000D0B5D18220D09CD0B8D1800A0D005541FD
:1039E00052542053544D33320A0D00000024F40089
:1039F0003400002000000000000000000000000073
:103A000000000000000000000000000000000000B6
:103A100000000000000000000000000000000000A6
:103A20000000000000000000000000000000000096
:103A30000000000000000000000000000000000086
:103A40000000000000000000000000000000000076
:103A50000000000043000000000000000000000023
:103A60000000000000000000000000000000000056
:103A70000000000043000000000000000000000003
:103A80000000000000000000000000000000000036
:103A900000000000430000000000000000000000E3
:103AA0000000000000000000000000000000000016
:103AB00000000000430000000000000000000000C3
:103AC00000000000000000000000000000000000F6
:103AD00000000000430000000000000000000000A3
:103AE00000000000000000000000000000000000D6
:103AF0000000000043000000000000000000000083
:103B000000000000000000000000000000000000B5
:103B10000000000043000000000000000000000062
:103B20000000000000000000000000000000000095
:103B300000000000353700080D37000800000000C5
:103B4000B6380008B4380008B5380008B5380008A1
:103B5000B5380008B5380008B5380008B538000891
:103B6000B5380008B5380008B5380008FFFFFFFF7A
:103B7000FFFFFFFFFFFFFFFFFFFF000001004153BA
:103B80004349490000000000000000000000000060
:103B90000000000000000000000000000000415391
:103BA0004349490000000000000000000000000040
:103BB0000000000000000000000000000000000005
:0400000508001C3D96
:00000001FF
