:020000040800F2
:100000000050002095100008351000083710000837
:10001000391000083B1000083D10000800000000E7
:100020000000000000000000000000003F10000879
:1000300041100008000000004310000845100008AF
:10004000DD100008DD100008DD100008DD100008DC
:10005000DD100008DD100008DD100008DD100008CC
:10006000DD100008DD100008DD100008DD100008BC
:10007000DD100008DD100008DD100008DD100008AC
:10008000DD100008DD100008DD100008DD1000089C
:10009000DD100008DD100008DD100008DD1000088C
:1000A000DD100008DD100008DD100008DD1000087C
:1000B000DD100008DD100008DD100008DD1000086C
:1000C000DD100008DD100008DD100008DD1000085C
:1000D000DD100008DD100008DD100008DD1000084C
:1000E000DD100008DD100008DD1000080000000031
:1000F0000000000000000000000000000000000000
:0C01000000000000000000005FF808F1A3
:10010C0010B5054C237833B9044B13B10448AFF345
:10011C0000800123237010BD0C00002000000000A3
:10012C003811000808B5034B1BB103490348AFF362
:10013C00008008BD000000001000002038110008ED
:10014C0038B50E4B054618784FF47A73B3FBF0F3C1
:10015C000B4A1068B0FBF3F000F080F8044658B975
:10016C000F2D09D8024629464FF0FF3000F042F817
:10017C00044B20461D6038BD012038BD0000002016
:10018C000800002004000020074A08B5136803206B
:10019C0043F01003136000F01BF80020FFF7D0FFB2
:1001AC0000F0EAFE002008BD00200240034A044B88
:1001BC0011681B780B441360704700BF2C000020A3
:1001CC0000000020014B1868704700BF2C00002075
:1001DC00074A0002D36800F4E06023F4E0631B04D8
:1001EC001B0C43F0BF6343F400330343D3607047ED
:1001FC0000ED00E0174B30B5DC68C4F30224C4F109
:10020C000703251D042B28BF0423062D4FF00105E1
:10021C0098BF002405FA03F303F1FF3388BF033CB6
:10022C001940A14005FA04F4013C2240002842EA9E
:10023C0001024FEA0212A9BF00F16040064BD2B294
:10024C0000F56140BBBF00F00F00D2B280F8002374
:10025C001A5430BD00ED00E014ED00E00138B0F1AF
:10026C00807F0AD2F021064B064A586082F8231090
:10027C000020072298601A6070470120704700BF69
:10028C0010E000E000ED00E02DE9F74F00242646D9
:10029C00664BDFF8A8E1DFF8A8C10A6832FA06F568
:1002AC0002D103B0BDE8F08F4FF0010808FA06F850
:1002BC0002EA080290457FD14D68122D00F0AA8009
:1002CC0000F28380022D00F0A28077D8002D00F080
:1002DC008980012D00F099804FF00F09FF2A93BF00
:1002EC00824606F18045083DD0F800B092BFB500BB
:1002FC00D0F804B0AD0009FA05F82BEA080804FAA6
:10030C0005F588BF00F1040A48EA0505CAF8005053
:10031C00D1F804A01AF0805F4ED0454D444FAD6922
:10032C0026F0030845F00105BD61BD6908F1804860
:10033C0005F00105019508F5803806F0030B019DC9
:10034C004FEA8B0BD8F8085009FA0BF925EA090982
:10035C00384DA84263D005F58065A84261D005F5FB
:10036C008065A8425FD005F58065A8420CBF0325C7
:10037C00042505FA0BF545EA0905C8F808501D686F
:10038C001AF4803F14BF154395431D605D681AF441
:10039C00003F14BF154395435D609D681AF4801FA0
:1003AC0014BF154395439D60DD681AF4001F14BFFC
:1003BC002A4325EA0202DA6001366EE7032D22D0C9
:1003CC00112D89D1CC68043486E71B4FBD4209D06E
:1003DC0012D8DFF870904D4504D009F580394D45A1
:1003EC007FF47AAF8C68C4B1012C0CBFC0F81080BC
:1003FC00C0F8148008246FE77545F3D06545F1D03B
:10040C00DFF84490EBE7002466E7CC6864E7CC683F
:10041C00083461E7CC680C345EE704245CE7002503
:10042C00A7E70125A5E70225A3E700BF00040140CB
:10043C0000100240000801400000211000003110A3
:10044C000000321000001110000022102DE9F341C1
:10045C00054608B901203CE00368DB0710D42B6883
:10046C009F075DD42B68190700F194802B685A07FD
:10047C0000F1BE80E869002840F02C81002028E0C3
:10048C008F4C636803F00C03042B07D0636803F0F4
:10049C000C03082B09D16368DE0306D523689C0383
:1004AC00DDD56B68002BDAD1D4E76B68B3F5803FF0
:1004BC0012D1236843F480332360FFF783FE064692
:1004CC0023689803CBD4FFF77DFE801B6428F7D9F3
:1004DC00032002B0BDE8F0819BB9236823F480337C
:1004EC002360236823F480232360FFF76BFE06460A
:1004FC0023689903B3D5FFF765FE801B6428F7D9F1
:10050C00E6E7B3F5A02F236803D143F480232360DF
:10051C00CFE723F480332360236823F48023CBE7D5
:10052C00674C636813F00C0F07D0636803F00C037F
:10053C00082B10D16368DA030DD423689B0702D50E
:10054C002B69012B86D123686A6923F0F80343EAEF
:10055C00C203236086E72A695A4B6AB101221A60EA
:10056C00FFF730FE064623689F07ECD4FFF72AFE00
:10057C00801B0228F7D9ABE71A60FFF723FE06466B
:10058C00236898077FF56EAFFFF71CFE801B0228CF
:10059C00F6D99DE7AA694A4C4B4BDAB101221A6095
:1005AC00FFF710FE0646636A9B070DD54FF4FA520F
:1005BC00464B1B68B3FBF2F3019300BF019B5A1E21
:1005CC000192002BF9D151E7FFF7FCFD801B0228AB
:1005DC00E9D97DE71A60FFF7F5FD0646636A9F07C8
:1005EC007FF544AFFFF7EEFD801B0228F6D96FE7CD
:1005FC00334CE369D80024D40127E36943F08053DA
:10060C00E361E36903F080530093009B304E336841
:10061C00D90518D5EB68012B26D1236A43F00103C9
:10062C002362FFF7CFFD41F288368046236A9B0791
:10063C003FD5002F3FF41EAFE36923F08053E361F5
:10064C0018E70027E2E7336843F480733360FFF761
:10065C00B9FD80463368DA05DCD4FFF7B3FDA0EBB7
:10066C0008006428F6D933E7ABB9236A41F288381D
:10067C0023F001032362236A23F004032362FFF7B0
:10068C00A1FD0646236A9807D3D5FFF79BFD801B77
:10069C004045F7D91CE7052B236A03D143F004032B
:1006AC002362BAE723F001032362236A23F00403D5
:1006BC00B6E7FFF787FDA0EB0800B042B6D907E715
:1006CC000010024000004242800442420800002018
:1006DC00007000402A4B5A681C4602F00C02082A93
:1006EC003DD00023274E022833602BD1FFF76AFD43
:1006FC000746236899011FD42B6AB3F5803F05D1B7
:10070C006268A96822F400320A436260696A62680E
:10071C000B4322F474121343636001233360FFF71D
:10072C0051FD054623689A013FF5A8AEFFF74AFD37
:10073C00401B0228F6D9CBE6FFF744FDC01B02286C
:10074C00D7D9C5E6FFF73EFD054623689B017FF52B
:10075C0095AEFFF737FD401B0228F6D9B8E6012805
:10076C003FF4B7AE58682B6A00F480329A427FF49B
:10077C0071AE6B6A00F47010C01A18BF0120A8E6A5
:10078C00001002406000424230B5194B87B002ACF9
:10079C0003F11005224618685968083303C2AB42AE
:1007AC001446F7D101238DF80430022311498DF83A
:1007BC0005304B6803F00C02082A17D1C3F38342AF
:1007CC0006A80244DB0312F8102C0CD54B680A481F
:1007DC00C3F34043504306AA134413F8143CB0FB34
:1007EC00F3F007B030BD05485043FAE70248F8E78C
:1007FC00501100080010024000127A0000093D0060
:10080C002DE9F0410D46044610B90120BDE8F081F8
:10081C00454A136803F007038B4229D321688E07DE
:10082C0031D4CA0744D4404A136803F007039D42ED
:10083C0067D322683D4D12F0040F6ED1130706D515
:10084C006B68226923F4605343EAC2036B60FFF7C1
:10085C009BFF6B68364AC3F30313D35CD840354B0C
:10086C001860354B1868FFF76BFC0020BDE8F08171
:10087C00136823F007030B431360136803F007039B
:10088C009942C2D1CAE7294B11F0040F1EBF5A6816
:10089C0042F4E0625A60080742BF5A6842F4605260
:1008AC005A605A68A06822F0F00202435A60B8E716
:1008BC0062681E4E012A33681BD113F4003FA4D08A
:1008CC00736841F2883823F0030313437360FFF716
:1008DC0079FC07467368626803F00C03B3EB820F74
:1008EC00A1D0FFF76FFCC01B4045F3D90320BDE836
:1008FC00F081022A02D113F0007FE0E713F0020F1F
:10090C00DDE7136823F007032B431360136803F030
:10091C0007039D427FF479AF8BE76B68E16823F4A2
:10092C00E0630B436B6089E700200240001002403B
:10093C00601100080800002004000020036A70B554
:10094C0023F001030362036A446882690D6822F094
:10095C0073022A438D6823F002032B430A4DA842ED
:10096C000BD1CD6823F008032B438E694D6924F419
:10097C004074354323F004032C43446082614A687D
:10098C004263036270BD00BF002C0140036A70B566
:10099C0023F480730362036A4468C2690D6822F011
:1009AC0073022A438D6823F4007343EA05230B4D2D
:1009BC00A8420DD1CD6823F4006343EA05238E6968
:1009CC004D6924F44054354323F4806344EA051400
:1009DC004460C2614A68C263036270BD002C01406E
:1009EC00036A30B523F480530362036A4468C26916
:1009FC000D6822F4E64242EA05228D6823F4005386
:100A0C0043EA0533064DA84202BF4D6924F48044E5
:100A1C0044EA85144460C2614A680264036230BDD2
:100A2C00002C0140704700001A4A036890420AD01B
:100A3C00B0F1804F07D0A2F59432904203D002F56A
:100A4C008062904215D14A6823F070031343114A17
:100A5C0090420AD0B0F1804F07D0A2F59432904268
:100A6C0003D002F58062904203D1CA6823F440732C
:100A7C0013434A6923F08003134303608B68C362FA
:100A8C000B688362034B984204BF0B690363012319
:100A9C0043617047002C014010B50446A0B190F89A
:100AAC003D3003F0FF021BB980F83C2000F086FAC1
:100ABC000223206884F83D30211DFFF7B5FF012388
:100ACC00002084F83D3010BD012010BD10B5044647
:100ADC00A0B190F83D3003F0FF021BB980F83C2028
:100AEC00FFF7A0FF0223206884F83D30211DFFF79B
:100AFC009BFF0123002084F83D3010BD012010BD68
:100B0C00036A70B523F010030362036A44688269B8
:100B1C000D6822F4E64242EA05228D6823F0200398
:100B2C0043EA05130B4DA8420DD1CD6823F0800389
:100B3C0043EA05138E694D6924F44064354323F070
:100B4C00400344EA8504446082614A68826303621C
:100B5C0070BD00BF002C014038B590F83C30044605
:100B6C00012B4FF0020025D0012384F83D0084F8BE
:100B7C003C300C2A18D8DFE802F0071717171E179D
:100B8C0017172F17171740002068FFF7D7FE236899
:100B9C0009699A6942F008029A619A6922F0040282
:100BAC009A619A690A439A610123002084F83D30C6
:100BBC0084F83C0038BD2068FFF7A2FF2368096960
:100BCC009A6942F400629A619A6922F480629A618D
:100BDC009A6942EA0122E6E72068FFF7D7FE23680C
:100BEC000969DA6942F00802DA61DA6922F0040272
:100BFC00DA61DA690A43DA61D6E72068FFF7F0FEBA
:100C0C0023680969DA6942F40062DA61DA6922F46C
:100C1C008062DA61DA6942EA0122ECE710B5846895
:100C2C000A4324F47F4442EA03232343836010BD28
:100C3C0090F83C3070B5012B04464FF0020019D0EF
:100C4C00012384F83D00206884F83C30836823F449
:100C5C007F4323F0770383600B68402B65D015D856
:100C6C00102B0CD007D853B10123002084F83D3051
:100C7C0084F83C0070BD202B01D0302BF4D182685D
:100C8C0043F0070322F0700213431AE0602B34D0B8
:100C9C0019D8502BE8D14A68CE68016A056A21F050
:100CAC000A0125F00105056283690A4323F0F0036C
:100CBC0043EA061383610262836823F0700343F0F6
:100CCC0057038360D0E7702B0CD0B3F5005FCBD10A
:100CDC00CB684A688968FFF7A1FF2268936843F4E0
:100CEC00804308E0CB684A688968FFF797FF226861
:100CFC00936843F077039360B6E74D68CE68016A5A
:100D0C0021F0100101628269036A22F4704223F01F
:100D1C00A00343EA051342EA063282610362836848
:100D2C0023F0700343F06703CBE74A68CE68016A8F
:100D3C00056A21F00A0125F00105056283690A4361
:100D4C0023F0F00343EA061383610262836823F005
:100D5C00700343F04703B4E710B50124036A01F0B4
:100D6C001F018C4023EA04030362036A8A401A437E
:100D7C00026210BD10B5044601220068FFF7ECFFBB
:100D8C002368094A0020934202BF5A6C42F4004285
:100D9C005A649A6802F00702062A1EBF1A6842F0CB
:100DAC0001021A6010BD00BF002C014090F83C30CD
:100DBC0030B5012B4FF0020314D0046880F83D309D
:100DCC006268A3680D68496822F0700223F0800302
:100DDC000B432A436260A360012380F83D3000235B
:100DEC0080F83C30184630BD10B590B02822002158
:100DFC0006A800F093F90021142201A800F08EF946
:100E0C004FF480330122022407930E934FF4E01326
:100E1C0006A806920A920F930D94FFF717FB0F2367
:100E2C004FF4806201930023214601A8029403939E
:100E3C0004920593FFF7E4FC10B010BD002580B5BB
:100E4C0090B0FFF7A1F9FFF7CFFF464B00219A694D
:100E5C0005A842F020029A619A69434C02F02002E4
:100E6C000192019A9A694FF0804842F004029A610B
:100E7C009B69102203F004030293029B00F04EF9CD
:100E8C001C22294609A80395049500F047F945232F
:100E9C00636040F2FF332046A560E3602561A561E5
:100EAC00C4F80080FFF7F8FD4FF4805305A92046E5
:100EBC000593FFF7BDFE2046FFF708FE03A9204669
:100ECC0003950495FFF772FF6023042209A92046BD
:100EDC0009930A950B950D95FFF73EFE082209A97B
:100EEC0020460A95FFF738FE204600F079F80421D9
:100EFC002046FFF73FFF08212046FFF73BFFFFF797
:100F0C0061F901234446194F194D1A4E38602B7064
:100F1C0040F2FF38FFF756F93B689842FAD0FFF7DA
:100F2C0051F92B7838606BB13388A363A8EB0302BB
:100F3C0001339BB24345E26301D03380EAE70023DF
:100F4C0033802B7040F2FF323388E363D11A0133C4
:100F5C009BB29342A1633380DAD100233380012307
:100F6C002B70D5E700100240380000203400002020
:100F7C0030000020280000200E4B82B09A6942F00D
:100F8C0001029A619A6902F001020092009ADA69F0
:100F9C0042F08052DA61DB69074A03F08053019317
:100FAC00019B536823F0E06343F00073536002B07D
:100FBC00704700BF0010024000000140036882B07F
:100FCC00B3F1804F0AD103F50433DA6942F0010220
:100FDC00DA61DB6903F001030193019B02B07047F6
:100FEC0010B5044686B01022002102A800F096F835
:100FFC002368B3F1804F13D103F504339A6902A926
:10100C0042F004029A619B69064803F004030193C1
:10101C00019B06230293022303930593FFF734F9F4
:10102C0006B010BD000801407047FEE7FEE7FEE782
:10103C00FEE7704770477047FFF7B8B80F4B1A6858
:10104C0042F001021A6059680D4A0A405A601A6847
:10105C0022F0847222F480321A601A6822F4802200
:10106C001A605A6822F4FE025A604FF41F029A600A
:10107C004FF00062034B9A60704700BF00100240B3
:10108C000000FFF800ED00E0002103E00B4B5B5883
:10109C00435004310A480B4B42189A42F6D30A4A81
:1010AC0002E0002342F8043B084B9A42F9D3FFF7C5
:1010BC00C5FF00F00FF8FFF7C1FE7047781100086C
:1010CC00000000200C0000200C0000207800002004
:1010DC00FEE7000070B500250C4E0D4CA41BA410AF
:1010EC00A54209D100F022F800250A4E0A4CA41B97
:1010FC00A410A54205D170BD56F82530984701358E
:10110C00EEE756F8253098470135F2E770110008E4
:10111C007011000870110008741100080346024495
:10112C00934200D1704703F8011BF9E7F8B500BFF3
:10113C00F8BC08BC9E467047F8B500BFF8BC08BCAC
:04114C009E46704704
:1011500002030405060708090A0B0C0D0E0F1010F8
:101160000000000000000000010203040607080957
:041170003101000841
:041174000D01000861
:0C11780001000000100000000024F40042
:04000005080010954A
:00000001FF
